:020000040800F2
:10000000201A0020490200082B180008C11400081B
:1000100029180008190800087919000800000000D4
:100020000000000000000000000000008D18000823
:1000300051080008000000005F1800088F18000831
:1000400063020008630200086302000863020008FC
:1000500063020008630200086302000863020008EC
:1000600063020008630200086302000863020008DC
:1000700063020008630200086302000863020008CC
:100080006302000863020008630200080000000029
:1000900000000000000000000000000063020008F3
:1000A000630200086302000863020008630200089C
:1000B000630200086302000863020008630200088C
:1000C000630200086302000863020008630200087C
:1000D00063020008630200086302000800000000D9
:1000E00063020008630200086302000800000000C9
:1000F0000000000000000000000000006302000893
:1001000000000000630200086302000863020008A8
:1001100000000000000000000000000000000000DF
:100120006302000863020008630200081D0800085B
:100130006302000800000000000000000000000052
:100140000000000000000000000000006302000842
:1001500063020008630200086302000863020008EB
:1001600063020008630200080000000000000000B5
:10017000000000000000000000000000000000007F
:100180000000000063020008000000000000000002
:10019000630200086302000800F002F800F045F86E
:1001A0000AA090E8000C82448344AAF10107DA45D2
:1001B00001D100F03AF8AFF2090EBAE80F0013F0DF
:1001C000010F18BFFB1A43F001031847644D0000EC
:1001D000844D0000103A24BF78C878C1FAD852077D
:1001E00024BF30C830C144BF04680C6070470000B1
:1001F0000023002400250026103A28BF78C1FBD830
:10020000520728BF30C148BF0B607047642900F017
:10021000D980002070471FB503F05BF89DE803000C
:1002200000F096F91FBD10B510BD00F073FA11462D
:10023000FFF7F1FF02F07EF900F091FA03B4FFF747
:10024000F2FF03BC00F0C2FA0948804709480047A2
:10025000FEE7FEE7FEE7FEE7FEE7FEE7FEE7FEE776
:10026000FEE7FEE704480549054A064B70470000D3
:10027000691900089901000820020020201A0020B6
:10028000200A0020200A002070B5064600F044F93C
:10029000056806F10B0020F00704B4429CBF002063
:1002A00070BD2B466A68BAB11068A04210D304F141
:1002B000080188423CBF5068586007D35168101944
:1002C00041601168091B016058601460101D70BD09
:1002D00013465268002AE7D12146284600F024F947
:1002E0000028DED170BD70B50446051F00F014F97A
:1002F0000068002C14BF446870BD002C18BFAC42CD
:100300003CBF20466468F8D301680A18AA4218BFA7
:10031000456003D12A6805461144016028684119E7
:10032000A1421CBF6C6070BD6168696021680844AF
:10033000286070BD0FB41CB5074B06AA7B44694604
:100340000090059800F0A3F90020694600F0B2F98A
:100350001CBC5DF814FB0000750300002DE9F041A2
:100360000E460446002020622046E168884730B3EC
:10037000252805D0D4E901219047206A401CF2E7E6
:10038000E168204600278847050018D0A5F1410004
:10039000192802D820354FF40067324629462046F6
:1003A0002760FFF733FF40B1012804D0F61D26F087
:1003B00007060836D8E7361DD6E72846DAE7206A6A
:1003C000BDE8F0812DE9F04106460024106875294A
:1003D000314616A510D0AFF30080002802DA404263
:1003E00013A507E031688A0701D512A502E0490785
:1003F00004D511A5012401E0AFF3008000210A22F9
:1004000006F1240709E0B0FBF2FCB0FBF2F302FBBB
:100410001C00303078541846491C0028F3D123467C
:100420002A463046BDE8F04100F0D3B80000000095
:100430002D0000002B0000002000000040EA010316
:10044000024630B59B0710D14FF0013400E008C2DE
:1004500008C91D1B9D4315EAC41FF8D013F0FF0106
:1004600002F8011B0DD01B0AF8E711F8013B002B25
:1004700002F8013B05D011F8013B002B02F8013BCB
:10048000F3D130BD10B5431C02E010F8011B71B16F
:100490008107FAD14FF0013202C88C1A8C4314EA5A
:1004A000C211F9D0C01A0A0603D0C01E10BDC01A6E
:1004B00010BD0A0401D0801E10BD0902FCD0401EF0
:1004C00010BD4FF0000200B5134694469646203901
:1004D00022BFA0E80C50A0E80C50B1F12001BFF4FD
:1004E000F7AF090728BFA0E80C5048BF0CC05DF863
:1004F00004EB890028BF40F8042B08BF704748BFB1
:1005000020F8022B11F0804F18BF00F8012B704724
:10051000704770477047000000487047C4010020D2
:10052000704770477047704738B504460A46002048
:100530006946AFF30080002808BF38BD0246009925
:10054000204600F0C5F8012038BD012000F0DAB8DF
:10055000F8B5AFF30080054600200C46102000BF20
:100560000646A819A0420DD9324669460020AFF3CD
:100570000080070008BF00F0C5F80098A04218BF2F
:100580000546C419FFF7C8FF05600746F01D20F0B7
:1005900007004619284600F00AF8B44208BFF8BD23
:1005A000A21B31463868BDE8F84000F091B8002140
:1005B0000160C0E9011070471020704710B500F0CD
:1005C00083F8006810BD10B5044600F07DF80460A3
:1005D00010BD2DE9F0470D4699469246044600F1BC
:1005E00024080168880604D5E06921F01001216023
:1005F00000E00120A84201DD471B00E00027A169BF
:100600007A1902EB0900081AA0612078C00602D40A
:100610002046AFF30080002608E0D4E901211AF853
:1006200006009047206A401C761C20624E45F4DB91
:100630002078C0060AD52046AFF3008006E0D4E952
:10064000012130209047206A401C2062381EA7F10B
:100650000107F4DC07E0D4E9012118F80500904710
:10066000206A401C2062281EA5F10105F3DC20460B
:10067000AFF300802078000602D50220BDE8F087A5
:100680000120FBE701694A1C02610878704700B548
:100690008FB0CDE901310021059105497944CDE9BB
:1006A000031011466846FFF759FE0FB000BD000069
:1006B000E5FFFFFF0A6802F8010B0A6070470000BF
:1006C00000487047BC01002000487047BC01002072
:1006D000034640688C46002818BF88423CBF03464A
:1006E0004068F8D318681844884207D00CF103001A
:1006F00020F00700001D411A521A0146081D0A6029
:10070000FFF7F1BD10B500F039F8BDE8104000F07A
:100710002FB870477546FFF7D3FFAE460500694610
:10072000534620F00700854618B020B5FFF79AFD24
:10073000BDE820404FF000064FF000074FF00008E2
:100740004FF0000B21F00701AC46ACE8C009ACE863
:10075000C009ACE8C009ACE8C0098D46704710B5C7
:100760000446AFF300802046BDE81040FFF766BDA9
:10077000002801D000F02AB87047000010B5012809
:1007800005D0002103A000F027F8012010BD09A129
:10079000F8E7000053494752544D454D3A204F75F4
:1007A00074206F662068656170206D656D6F727969
:1007B000000000003A2048656170206D656D6F7221
:1007C0007920636F72727570746564000149182036
:1007D000ABBEFEE72600020070B505460C460A20B7
:1007E00000E06D1C00F011F835B128780028F8D130
:1007F00002E0641C00F009F814B120780028F8D158
:10080000BDE870400A20AFF3008008B569468DF856
:1008100000000320ABBE08BDFEE700000A480168E7
:10082000C1F3C06131B14FF000618160074901201F
:10083000087070470168C1F340610029F9D04FF09A
:100840000071816000F005B80064024014000020CF
:10085000704772B6FEE708B5F023002100901A46F3
:10086000084600F001F808BD2DE9FF5F8B460E98A1
:100870009246010A01EB0020009987B29946521A6C
:10088000A3EB0B0012FB00F040004FF48074B0FBB0
:10089000F4F104FB1101411AB1FBF4F8B0FBF4F1DF
:1008A00004FB11066000FFF7EFFC05465FF0000057
:1008B00025F81070401CA042FAD3A9F10100C3B280
:1008C000AAF10100C2B25946009800F005FD0027C8
:1008D00004E02146284600F063FD7F1C4745F8D31D
:1008E0001EB1B1B2284600F05BFD04B02846BDE859
:1008F000F05FFFF7F8BC00002DE9F74FDFF8B8B064
:10090000894682B0DBF804100026CF88DBF804109B
:100910008D88E91D019121F00701491B01F0FF0AB3
:10092000DBF80410DBF804300968DB88DBF804002E
:100930008088C01DC008203A10FB02F003FB0010A5
:10094000009033E00198C1080098012901FB0600DE
:100950000BD002290BD0017842780904807841EA53
:10096000022141EA0008002419E0007801E0008833
:1009700040BA8046F7E7291B51440120491E8840B0
:1009800010EA080F584601D0028800E04288029819
:1009900009F0FF012044C0B200F082F8641CAC42B0
:1009A000E9D309F101001FFA80F9761CBE42C9D3D0
:1009B00005B0BDE8F08F00000C0000202DE9F047E5
:1009C000C0F507702DED048B081A1C46914600B245
:1009D000DDF8308002F021F99FED2B1B53EC112B39
:1009E00002F082F99FED2A1B53EC112B01F08EFFD0
:1009F00001F0A6FE0546204602F026F90E46044602
:100A000046EC180B284602F0F3FB41EC100B00F00B
:100A1000DFFF53EC182B51EC100B02F065F941ECA1
:100A2000100B01F039F89FED1C9B51EC100B53ECAF
:100A3000192B01F0B7FE02F0C1F8074646EC184B3F
:100A4000284602F0D5FB41EC100B01F0E5F853EC21
:100A5000182B51EC100B02F047F941EC100B01F090
:100A60001BF853EC192B51EC100B01F09BFE02F01C
:100A7000A5F8BDEC048B81B2B8B243464A46BDE846
:100A8000F04700F030B80000182D4454FB21094015
:100A900000000000008066400000000000005E4092
:100AA0002DE9F0418046100A00EB022086B20F4685
:100AB00004250820FFF7E8FB0446002024F8106016
:100AC000401C80B2A842F9D33B4642461946104624
:100AD00000F002FC2046082100F062FC2046BDE840
:100AE000F041FFF700BC2DE9FE4F07465000C0F172
:100AF000000B481C99460093C3B2B818C2F1010814
:100B00001446401C0025C2B20E46381B4FF0010AA5
:100B1000C9B2C0B248E0B8F1000F09DB0BF1020026
:100B20000FFA80FB641E08EB0B0024B20FFA80F86A
:100B30000AF102000FFA80FA08EB0A000FFA80F8B7
:100B400030196D1C411C2DB2CBB27919491CCAB2A7
:100B50000291C1B2781BCDE90090C0B2FFF784FECC
:100B6000301B411CCBB20299CDF80090CAB2C1B281
:100B70000198C0B2FFF778FE7119481CC3B238194A
:100B8000401CC2B20290381BCDE90090C9B2C0B27D
:100B9000FFF76AFE711B481CC3B20298CDF80090A3
:100BA000C2B20198C9B2C0B2FFF75EFEA542B2DB85
:100BB000BDE8FE8F2DE9F04F2DED028B9BB0032693
:100BC00018961926ED02144645EA43130696234368
:100BD000F026081A00EE100A4FF01F0B4FF0000825
:100BE000F8EE400A4FF4A572D94647461FFA83FA39
:100BF00016929FED921A81EE200A00EE904AF8EECE
:100C0000600A20EE200A00F0B7FFBCEEC00A2246C0
:100C10008BA110EE100A85B209A8FFF78BFB894C57
:100C20000020009060688088400000EE100AB8EE56
:100C3000400A9FED858A606878EE400A80888000CF
:100C400000EE100AB8EE400A30EE800ABCEEC00A90
:100C500010EE100AC2B2606880796B30C3B260686F
:100C60006B218088400000EE100AB8EE400A38EE92
:100C7000400ABCEEC00A10EE100AC0B2FFF7F4FD45
:100C800009A8FFF7FFFB616809AA89884843400863
:100C900000EE100A6B21B8EE400A38EE400ABCEEB6
:100CA000C00A10EE100A80B200F044FB201FB7EE1D
:100CB000008A4488A5427DD3824652E0B4F5B47FD1
:100CC00000D1002400EE104A701E0699F8EE400A8A
:100CD00000EE100A18985F23B8EEC01A80EE810A61
:100CE00000EE900AF8EE600A38EE401A61EE201A23
:100CF00000EE909AF8EE600A40EE201AFCEEE10A4F
:100D000010EE900A00EE901AC002F8EE600A61EE52
:100D1000201A00EE908AF8EE600A40EE201AFCEEEF
:100D2000E10A10EE901A00EE90BACAB2F8EE600A2C
:100D300040EA4210192221EE201A00EE907AF8EED5
:100D4000600A00EE201ABCEEC10A10EE101AC9B2F9
:100D5000084380B2009021B21698FFF72FFE641C62
:100D6000A4B2AC42AAD1AAF802501BB0BDEC028BCF
:100D7000BDE8F08F0CB94FF4B47400EE104A701E49
:100D8000F8EEC00A00EE100A1898B8EEC01A80EE0D
:100D9000810A00EE900AF8EE600A38EE401A61EE21
:100DA000201A00EE909AF8EE600A40EE201AFCEE4F
:100DB000E10A00E034E0069910EE900A00EE901A85
:100DC0005F23C002F8EE600A61EE201A00EE908AFE
:100DD000F8EE600A40EE201AFCEEE10A10EE901ADE
:100DE00000EE90BAC9B2F8EE600A40EA411021EE76
:100DF000201A00EE907AF8EE600A00EE201ABCEE9F
:100E0000C10A10EE102AD2B210431FFA80FA002055
:100E10000090601C01B219221698FFF7CFFD641EE6
:100E2000AC42A7D15F23192229B2CDF800A01698B1
:100E3000FFF7C4FD0348001F458096E7000070439C
:100E4000256443000C0000200000F042FF4900B57B
:100E50004FF4806088614102FD4881610821816111
:100E6000EF2000F0FFFAEB2000F0FCFA142000F075
:100E700011FBFE2000F0F6FAEF2000F0F3FAEB2071
:100E800000F0F0FA142000F005FB842000F0EAFAEC
:100E9000402000F0FFFA852000F0E4FAFF2000F087
:100EA000F9FA862000F0DEFAFF2000F0F3FA87203E
:100EB00000F0D8FAFF2000F0EDFA882000F0D2FA16
:100EC0000A2000F0E7FA892000F0CCFA212000F097
:100ED000E1FA8A2000F0C6FA002000F0DBFA8B204D
:100EE00000F0C0FA802000F0D5FA8C2000F0BAFAA9
:100EF000012000F0CFFA8D2000F0B4FA012000F0BC
:100F0000C9FA8E2000F0AEFAFF2000F0C3FA8F205D
:100F100000F0A8FAFF2000F0BDFAB62000F0A2FA17
:100F2000002000F0B7FA002000F0B4FA362000F0FC
:100F300099FA282000F0AEFA3A2000F093FA052042
:100F400000F0A8FA902000F08DFA082000F0A2FA34
:100F5000082000F09FFA082000F09CFA082000F01A
:100F600099FABD2000F07EFA062000F093FABC202A
:100F700000F078FA002000F08DFAFF2000F072FAFD
:100F8000602000F087FA012000F084FA042000F0CD
:100F900081FAC32000F066FA132000F07BFAC42027
:100FA00000F060FA132000F075FAC92000F05AFA38
:100FB000222000F06FFABE2000F054FA112000F059
:100FC00069FAE12000F04EFA102000F063FA0E20DA
:100FD00000F060FADF2000F045FA212000F05AFA14
:100FE0000C2000F057FA022000F054FAF02000F034
:100FF00039FA452000F04EFA092000F04BFA08209B
:1010000000F048FA082000F045FA262000F042FAE5
:101010002A2000F03FFAF12000F024FA432000F0EB
:1010200039FA702000F036FA722000F033FA3620D8
:1010300000F030FA372000F02DFA6F2000F02AFA85
:10104000F22000F00FFA452000F024FA092000F009
:1010500021FA082000F01EFA082000F01BFA2620D2
:1010600000F018FA2A2000F015FAF32000F0FAF93F
:10107000432000F00FFA702000F00CFA722000F00C
:1010800009FA362000F006FA372000F003FA6F2044
:1010900000F000FAED2000F0E5F91B2000F0FAF96D
:1010A0000B2000F0F7F9AE2000F0DCF9772000F01B
:1010B000F1F9CD2000F0D6F9632000F0EBF97020B3
:1010C00000F0D0F9072000F0E5F9072000F0E2F980
:1010D000042000F0DFF90E2000F0DCF90F2000F012
:1010E000D9F9092000F0D6F9072000F0D3F908203B
:1010F00000F0D0F9032000F0CDF9E82000F0B2F9BB
:10110000342000F0C7F9622000F0ACF9182000F09C
:10111000C1F90D2000F0BEF9712000F0BBF9ED20FF
:1011200000F0B8F9702000F0B5F9702000F0B2F9C5
:10113000182000F0AFF90F2000F0ACF9712000F09A
:10114000A9F9EF2000F0A6F9702000F0A3F97020B3
:1011500000F0A0F9632000F085F9182000F09AF95A
:10116000112000F097F9712000F094F9F12000F0BF
:1011700091F9702000F08EF9702000F08BF91820A2
:1011800000F088F9132000F085F9712000F082F951
:10119000F32000F07FF9702000F07CF9702000F05F
:1011A00079F9642000F05EF9282000F073F9292015
:1011B00000F070F9F12000F06DF9012000F06AF9FB
:1011C000F12000F067F9002000F064F9072000F03A
:1011D00061F9662000F046F93C2000F05BF9002040
:1011E00000F058F9CD2000F055F9672000F052F9D1
:1011F000452000F04FF9452000F04CF9102000F098
:1012000049F9002000F046F9002000F043F90020E1
:1012100000F040F9672000F025F9002000F03AF9CD
:101220003C2000F037F9002000F034F9002000F0F5
:1012300031F9002000F02EF9012000F02BF95420A4
:1012400000F028F9102000F025F903E00004024026
:1012500000000240322000F01DF9982000F01AF939
:10126000742000F0FFF8102000F014F9852000F041
:1012700011F9802000F00EF9002000F00BF9002099
:1012800000F008F94E2000F005F9002000F002F906
:10129000982000F0E7F83E2000F0FCF8072000F06E
:1012A000F9F8352000F0DEF8212000F0DBF81120FD
:1012B00000F0D8F829205DF804EB00F0D3B8000066
:1012C00001494880704700000C0000200149486037
:1012D000704700000C000020F0B504461D4616467D
:1012E0000F462A2000F0BEF8002000F0D3F8204678
:1012F00000F0D0F8002000F0CDF8304600F0CAF839
:101300002B2000F0AFF8002000F0C4F8384600F0C1
:10131000C1F8002000F0BEF8284600F0BBF8BDE898
:10132000F0402C2000F09EB8014908807047000072
:101330000C0000202DE9F047054689461646104668
:10134000FFF7A0F8154CC0B2EFB26168C5F1F00824
:101350008988414341451DDD00250AE0725D49460B
:101360003846FFF7C9FA60686D1CEDB20079384461
:10137000C7B26168898898FBF1F0A842EED1BDE858
:10138000F08749462846FFF7B7FA6068761C8088E0
:10139000284485B23278002AF3D1F0E70C0000200F
:1013A0002DE9F047294F82464FF080600E464FF4FA
:1013B0008069B861264904208861264D4FF00008F5
:1013C00085F80080244C0321204600F093F823493F
:1013D000201DCA781258CB786FF30F0232431A508F
:1013E000C8782058CA7840F01000A0507804A06057
:1013F0008010A060CB781A485246E358164E03F08E
:10140000C0030C36402BCB78A6F1040C0BD043F86C
:101410000C20CA789051CA782046A258C97842F068
:101420000102625005E09A51CA7842F80C00F2E7D6
:1014300000BF29780029FBD0032100F05BF885F874
:101440000080C7F81890BDE8F08700000004024053
:10145000000002401400002000640240004E00081A
:101460000C30014000B50246084B4FF48060010487
:101470009961074B042001049961104600F0F0F9CE
:1014800002494FF48060886100BD00000004024002
:101490000000024000B50246074B4FF48060010493
:1014A0009961064904208861104600F0D9F9024983
:1014B0004FF48060886100BD0004024000000240DB
:1014C000FEE70000044908B50A6802430A6009689B
:1014D0000140009108BD000030380240044908B5C1
:1014E0000A6802430A6009680140009108BD0000D3
:1014F00044380240034A515C425822F001024250F3
:1015000070470000004E0008F0B50A680F2692FAF6
:10151000A2F2B2FA82F303248AE001279F4015EA7F
:1015200007027DD04D68012D01D0022D1BD18D68A1
:10153000876892FAA2FCBCFA8CFC4FEA4C0C04FAC5
:101540000CFC27EA0C0792FAA2FCBCFA8CFC4FEACE
:101550004C0C05FA0CF52F438760CD68476855435E
:1015600097432F4347600F69D0F80CC092FAA2F559
:10157000B5FA85F54FEA450E04FA0EF52CEA050C8E
:1015800092FAA2F5B5FA85F56D00AF404CEA070C6A
:10159000C0F80CC04D68022D33D192FAA2F5B5FA0D
:1015A00085F5082D15D2D1F814C0056A92FAA2F774
:1015B000B7FA87F7BF0006FA07F7BD4392FAA2F71A
:1015C000B7FA87F7BF000CFA07FC45EA0C0505627D
:1015D00017E0D1F814E0476A150A95FAA5FCBCFAA1
:1015E0008CFC4FEA8C0C06FA0CFC95FAA5F5B5FAC2
:1015F00085F5AD0027EA0C070EFA05FE47EA0E074F
:1016000047624D68076892FAA2FCBCFA8CFC4FEA6C
:101610004C0C04FA0CFE27EA0E0792FAA2F200E044
:1016200005E0B2FA82F2520095402F4307605B1C3E
:101630000A681546DA407FF470AF0020F0BD4FF421
:101640007A71B0FBF1F14FF0E020491E41610021B9
:10165000816105210161704710B503680122C3F360
:1016600080132BBBD1E900231A43D1E90234234371
:101670001A430B691A434B691A438B691A43CB69A6
:101680001A430B6A1A4303684FF6BF74A3431A4305
:10169000026042684B6922F0040242EA134242604F
:1016A0000A6AB2F5005F02D1898C89B20161002219
:1016B000C16921F40061C161104610BD0149086093
:1016C0007047000018000020F0B587B01821684668
:1016D000FEF7F7FE0120FFF7F5FE0220FFF7F2FE0E
:1016E0000E484FF4402181610D4D07154102A9615B
:1016F0000C21009101260024CDE901640394694680
:101700000494FFF701FF0097CDE901640394694653
:1017100028460494FFF7F8FE07B0F0BD0000024031
:101720000004024010B590B028216846FEF7C9FEBB
:1017300018210AA8FEF7C5FE4FF48050FFF7CEFE31
:101740000120FFF7BFFEA0200A9002200B9003208B
:101750000024CDE90C040520CDE90E400AA92E484D
:10176000FFF7D2FE2E482D49C2788A58C37822F05E
:10177000606242F0C062CA50C2788A58C37822F0D0
:10178000C00242F04002CA50C2788A58C37822F49C
:10179000403242F48032CA50C2788A58C37822F468
:1017A0009072CA50C2788A58C37822F40072CA5024
:1017B000C2788A58C37842F48062CA50C2788A5884
:1017C000C37822F4C052CA50C2788A58C37822F42F
:1017D000C042CA501149C27814315258C07822F020
:1017E000040242504FF48270CDE900404815CDE923
:1017F000044003940A20CDE908400294069407941B
:10180000084C69462046FFF727FF606820F010006B
:10181000606010B010BD0000000002400064024093
:10182000084E000800300140FEE7FEE730B500F04A
:101830000703C3F10704042C00D90424181D07284A
:1018400001D2002300E0DB1E012505FA04F0401E52
:10185000084098409D406D1E1540284330BD70479C
:1018600000BF09498968C1F340010029F9D0064940
:10187000087300BF0449896801F001010029F9D00B
:101880000149097B704700000030014070477047F4
:10189000304810B5016821F0070141F003010160F3
:1018A000016801F007010329FAD12B48016841F4CE
:1018B000404101602948016821F0F80141F08001B0
:1018C0000160016841F0010101600168C1F340015C
:1018D0000029FAD0214941F60812091D0B68204C55
:1018E00023401A430A600A6822F440320A60016801
:1018F00041F0807101600168C1F340610029FAD0B4
:1019000016480830016821F0F0010160016821F4F7
:10191000E05141F480510160016821F460410160AF
:10192000016821F0030141F002010160016801F04A
:101930000C010829FAD10B4C2046FFF780FE204607
:10194000FFF7BCFE05488C30016821F08071016012
:1019500010BD0000003C0240007000400038024012
:101960000080BFFF00E1F5050248016841F4700105
:101970000160704788ED00E0FEE703B40198410084
:10198000009850EAC12018BF04204A0D18BF40F04B
:10199000010040F2FF72B2EB515F08BF40F002005D
:1019A000012808BF052002B070470907090E00286A
:1019B00004DB00F1E02080F80014704700F00F0015
:1019C00000F1E02080F8141D7047000000000000C6
:1019D00010B52F499FED2C1B2DED020B84B00598FF
:1019E00020F000408842D8BF9DED040B2DDD294931
:1019F000884209D1049840B94FF00100FEF7E3FD99
:101A000000F062FD06B010BD05DB9DED040B00F09B
:101A10004FFD06B010BD68469DED040B00F060F967
:101A200010F0030004BF9DED021B9DED000B0CD0D8
:101A300001280ED09DED021B9DED000B022817D052
:101A4000012000F09DFC06B010BD00F065FB06B063
:101A500010BD9DED021B9DED000B012000F090FCE0
:101A600051EC100B00F060FE06B041EC100B10BD05
:101A700000F052FB51EC100B00F056FE06B041ECAA
:101A8000100B10BD0000000000000000000000006E
:101A9000FB21E93F0000F07F10B52DED020B2DED8D
:101AA000088B84B09DED0C0B51EC100B01F050FA3B
:101AB00041EC180B9DED0C0B53EC182B51EC100B5B
:101AC00001F0ACFA41EC190B0D989FED290B10F0C9
:101AD000004F53EC102B51EC190B9FED21AB9FEDF8
:101AE00022BB0ED001F0C4F80ED953EC1B2B51ECE5
:101AF000190B01F0F7F91CD214E000BF41EC180BF0
:101B000017E001F0B5F806D253EC1A2B51EC180B84
:101B100001F084FAF2E753EC1B2B51EC190B01F0A6
:101B2000E1F906D853EC1A2B51EC180B00F03AFEF1
:101B3000E4E78DED028B9DED0C0B18EE901A10EE84
:101B4000900A8DED000B61F31E0003909DED020BDA
:101B500004B0BDEC088B02B010BD00000000000016
:101B6000000000000000F03F000000000000E03F27
:101B7000000000000000E0BF10B52DED028BB0EEBC
:101B8000408A18EE100A01F0AFFB01EE100A18EEC1
:101B9000100AB7EE000A78EE410A10F0004F4FF03D
:101BA0007F4010EE901A12D0B1F13F4F24BF10EEDB
:101BB000901AB0EB410F12D210EE901AB1F17C5F87
:101BC0001CDD10EE901AB0EB410F17D314E0B1F109
:101BD0003F4F07D910EE901AB0EB410F02D331EE10
:101BE000401A0BE010EE901AB1F17C5F06DB10EEAC
:101BF000901AB0EB410F01D331EE001A18EE100A23
:101C0000BDEC028B11EE101A61F31E0000EE100AFB
:101C100010BD00000000000010B52F499FED2C1BE7
:101C20002DED020B84B0059820F000408842DCBF07
:101C300000209DED040B32DD2849884209D104982B
:101C400040B94FF00100FEF7BEFC00F03DFC06B0CD
:101C500010BD05DB9DED040B00F02AFC06B010BDA5
:101C600068469DED040B00F03BF810F0030011D026
:101C7000012818D09DED021B9DED000B02281AD003
:101C800000F04AFA51EC100B00F04EFD06B041ECAA
:101C9000100B10BD9DED021B9DED000B012000F00F
:101CA0006FFB06B010BD9DED021B9DED000B00F01B
:101CB00033FA06B010BD012000F062FB51EC100BAE
:101CC00000F032FD06B041EC100B10BD000000002A
:101CD0000000000000000000FB21E93F0000F07F51
:101CE0002DE9F14F04462DED020B2DED088B8AB046
:101CF0009FEDE70B80ED020B139EE74826F00045B1
:101D000085420ADC9DED120B002084ED000B0AB029
:101D1000BDEC088B03B0BDE8F08FE0489FEDE0AB71
:101D20009FEDE1BBA84247DDE14F9FEDE39B9FEDB7
:101D3000E48B9DED120B53EC1A2B51EC100B002E83
:101D40001CDD01F06BF941EC100BBD4208D053ECE7
:101D50001B2B51EC100B01F061F9C4E900010BE001
:101D600053EC192B51EC100B01F058F953EC182BD4
:101D700001F054F9C4E900010120C8E700F012FDA8
:101D800041EC100BBD4208D053EC1B2B51EC100B57
:101D900000F008FDC4E900010BE053EC192B51ECF5
:101DA000100B00F0FFFC53EC182B00F0FBFCC4E917
:101DB00000014FF0FF30AAE7C348A84279DB9DED50
:101DC000120B51EC100B00F0A9FB41EC180B9FED2E
:101DD000C00B53EC102B00F087FF9FEDBF1B53ECA3
:101DE000112B00F0DFFC00F0E9FE074600F015FFC4
:101DF00041EC190B53EC1A2B00F076FF53EC182B27
:101E000001F000F941EC180B53EC1B2B51EC190BB2
:101E100000F06AFFDFF8C8A241EC100B4FEA15583A
:101E20000125FA4453EC102B51EC180B01F0F6F895
:101E3000032DC4E900013DD0C1F30A5005EB451163
:101E4000A8EB00001139814234DA0AEB051BB0EE31
:101E500048AA9BED000BF0EE68AA53EC102B51EC56
:101E6000190B00F041FF41EC1B0B51EC1A0B53EC2A
:101E70001B2B01F0D3F841EC180B51EC1A0B53EC6F
:101E8000182B01F0CBF853EC1B2B01F0C7F89BED9E
:101E9000020B41EC1A0B53EC102B51EC190B00F018
:101EA00023FF53EC1A2B01F0B9F841EC100B6D1C19
:101EB000B8E70EE0002EA8BF3846BFF628AF94ED75
:101EC000000B51EC100B00F02FFCC4E9000178422C
:101ED0001DE7C6F3130040F4801EC6F30A50A0F2BB
:101EE000F530471100F01F05C5F12000DDF848B0BE
:101EF00008900020069007900520EC467949002DB7
:101F000007EB0002794408BF51F8221009D051F8BC
:101F1000223001EB8201AB404A68089922FA01F1B4
:101F20001943A1FB0E26A1FB0B131A449A4234BF9E
:101F30000123002303EB06080CEB8003D3E901A681
:101F40000E448E4234BF0121002192448A4411B1D3
:101F5000924502D903E0924501D2012100E000211F
:101F6000C3E901A641444CF82010011EA0F1010074
:101F7000C4DC029800F10050850F0298DDE9036788
:101F80008000DDF8148000F048FE41EC1A0B30466A
:101F900000F05AFE9FED541B53EC112B00F0A4FEF1
:101FA00041EC1B0B384600F04FFE9FED511B53ECEC
:101FB000112B00F099FE41EC180B404600F044FE56
:101FC0009FED4D1B53EC112B00F08EFE41EC190BD5
:101FD00051EC180B53EC192B00F0E4FB53EC1B2BCA
:101FE00000F0E0FB53EC1A2B00F0DCFBCDE908011C
:101FF000002008909DED080B53EC1A2B51EC100BB0
:1020000001F00CF853EC1B2B01F008F853EC182BE3
:1020100001F004F853EC192B00F0F4FF9FED381B8E
:1020200053EC112B00F060FE9FED370B41EC180BC9
:1020300053EC102B9DED080B51EC100B00F054FEEF
:1020400053EC182B00F0AEFB9FED310B41EC180B5D
:1020500053EC102B9DED080B51EC100B00F044FEDF
:1020600053EC182B00F09EFB41EC100B139810F072
:10207000004F06D06D4251EC100B00F055FB41ECC7
:10208000100B284684ED000B41E600000000000024
:102090000000000000000000FB21E93F7CD9024065
:1020A00000004054FB21F93F3163621A61B4D03D16
:1020B000FB21F93F000000000000601A61B4D03D30
:1020C0007370032E8A19A33BFB21394100000000E5
:1020D00083C8C96D305FE43F000000000000E03FAE
:1020E0001A300000682F0000000000000000103EC1
:1020F000000000000000103C000000000000103A4A
:10210000182D4454FB21F93D3326A611460B113CF2
:1021100000000054FB21F93D10B52DED040B2DED11
:10212000088B82B0B0EE419AF0EE619A0B9820F0E5
:1021300000449FED4BABB4F1795F11DA9DED0A0BD2
:1021400051EC100B00F03AFD002801BFB0EE4A0A36
:10215000F0EE6A0A02B0BDEC088B04BF04B010BDFB
:102160009DED0A0B53EC102B51EC100B00F0BCFD55
:1021700041EC180B3C480621B0EE480AF0EE680A24
:10218000784400F081F853EC182B51EC100B00F060
:10219000ABFD9DED0A0B41EC1B0B53EC192B51ECE5
:1021A000100B00F0A1FD41EC190B53EC1B2B51EC73
:1021B000180B00F099FD53EC192B00F02FFF9FED49
:1021C0002C0B41EC190B53EC102B51EC180B00F0BD
:1021D0008BFD41EC100B2848844210DA53EC192B8C
:1021E00051EC100B00F01AFF53EC1A2B00F00AFF11
:1021F00041EC100B02B0BDEC088B04B010BD1F48C1
:10220000A042BCBF9FED1E1B8DED001B06DBA4F59D
:1022100000100190002000909DED001B51EC100B70
:1022200053EC112B00F0FAFE9DED000B41EC180B66
:1022300053EC102B51EC1A0B00F0F0FE41EC1A0B92
:1022400053EC192B51EC180B00F0E8FE53EC1A2B51
:1022500000F0D8FE41EC100BCCE7000000000000BD
:10226000000000000000F03F8C2C00000000000087
:10227000000000000000E03F3333D33F0000E93F9F
:10228000000000000000D23F70B504462DED028B27
:102290004D1E00EBC500B0EE408AF0EE608A90ED76
:1022A000000B35F0060017D053EC182B51EC100B37
:1022B00000F01AFD41EC100B6D1E04EBC50090ED13
:1022C000001B51EC100B53EC112B00F06BFA41EC9E
:1022D000100B35F00600E7D1022D36D0042D1CD0AE
:1022E000062D1CBFBDEC028B70BD53EC182B51ECBE
:1022F000100B00F0F9FC94ED0A1B53EC112B00F0CD
:1023000051FA53EC182B00F0EFFC94ED081B53EC42
:10231000112B00F047FA41EC100B53EC182B51EC49
:10232000100B00F0E1FC94ED061B53EC112B00F0B8
:1023300039FA53EC182B00F0D7FC94ED040B53EC56
:10234000102B00F02FFA41EC100B53EC182B51EC32
:10235000100B00F0C9FC94ED021B53EC112B00F0A4
:1023600021FA53EC182B00F0BFFC94ED001B53EC4A
:10237000112B00F017FABDEC028B41EC100B70BD75
:1023800031B504462DED040B2DED0A8BB0EE41BAAC
:10239000F0EE61BA0B989DED0A0B20F00040B0F111
:1023A000795F0DDA51EC100BFFF7E7FA042808BF4C
:1023B00000F09AF89DED0A0BBDEC0A8B05B030BD1C
:1023C00053EC102B51EC100B00F08EFC41EC180B71
:1023D0009DED0A0B53EC182B51EC100B00F084FC14
:1023E00041EC190B2C48B0EE480AF0EE680A0521C2
:1023F0007844FFF749FF9FED2ACBB0EE40AAF0EEFC
:1024000060AA9CB353EC1C2B51EC190B00F06CFC34
:1024100041EC1C0B53EC1A2B51EC190B00F064FC33
:102420009FED210B41EC190B53EC102B51EC1B0BC6
:1024300000F05AFC53EC192B00F0F0FD53EC182B74
:1024400000F052FC53EC1B2B00F0E8FD53EC1C2B6E
:1024500000F0E4FD9DED0A1B53EC112B00F0D2FDC2
:10246000BDEC0A8B05B041EC100B30BDFFE753EC1F
:102470001A2B51EC180B00F037FC53EC1C2B00F01E
:1024800091F953EC192B00F02FFC9DED0A1B53EC36
:10249000112B00F087F9E3E7142B00000000000087
:1024A000495555555555C5BF000000000000E03F97
:1024B00010B553EC102B51EC100B00F073F941ECFC
:1024C000100B10BD000000009FED050B10B553EC84
:1024D000102B51EC100B00F019FA41EC100B10BD51
:1024E00000000000000000009FED050B10B553EC4C
:1024F000102B51EC100B00F0F7FB41EC100B10BD52
:1025000000000000000000100349484300E000BF45
:10251000401EFCD270470000A086010082B0CDE9C9
:10252000000121F0004001909DED000B02B051EC44
:10253000100B70478EB005245B4E012704EB84001E
:1025400000EBC40006EB800558A12846FDF776FF96
:10255000601C05F8320F641E6F70EFD5002586F8F9
:10256000335054A15048FDF769FF4F4855A134300E
:10257000FDF764FF4C4857A16830FDF75FFF4A48FC
:1025800058A19C30FDF75AFF47485AA1D030FDF7BB
:1025900055FF4FF48040FEF7A1FF5A48016841F013
:1025A000805101600068584C00F080500090206815
:1025B0004FF6FF010840554940F440700843206041
:1025C00020680022C0F302200F21FFF72FF90146F7
:1025D0006017FFF7EAF9FFF75BF9FFF775F84FF4BB
:1025E0008000FEF76FFF20680022C0F30220114632
:1025F000FFF71CF901463B20FFF7D7F944484FF09D
:102600000064C0F80041FFF78DF843494148CA789B
:102610008258CB7822F00102C2508460A2108260FE
:10262000CA788258CB7842F01002C250CA788258D9
:10263000C97842F0040242503848416841F0020132
:102640004160016841F040010160FEF7FFFB00209E
:10265000FEF701F93248FEF739FE0020FEF730FEA2
:102660004FF6FF70FEF760FE00242A462DA101A858
:10267000FDF760FE641CE4B222462AA101A8FDF722
:1026800059FE8823992278216D200095FEF7ECF8F9
:10269000224664210020FEF78DFA642C00D9002424
:1026A0000A20FFF731FFE5E71C00002046696C6552
:1026B000200000005475726E206F6E206C69676890
:1026C000740000005475726E206F6666206C696736
:1026D000687400005475726E206F6E2068656174B6
:1026E000657200005475726E206F666620686561C1
:1026F000746572004F70656E207468652066696C41
:1027000065000000403802400CED00E00000FA05D2
:1027100004E000E000640240084E00080030014080
:10272000000000202564430081F00041704780F0E4
:102730000040704721F00041704720F00040704792
:1027400021F00042A2F16052B2F5801F01F0004377
:1027500028BFD2F17F6C0BD95FEA001C43EAC202AA
:1027600042EB507018BF704728BF20F0010070473F
:10277000B2F5801FBCBF184670474FEA410C1CF5EC
:10278000001F02D2084600F0A9BD70B500F056FB4C
:1027900000000089FFF7F6BF4FF00040A0F5800071
:1027A0007047000010B591EA030F48BF83F0004363
:1027B00000F13C84841A71EB030C05D2121943EB2F
:1027C0000C03001B61EB0C01DFF824E14FEA11540C
:1027D000A4EB135C1EEA430F18BF9EEA445F73D05C
:1027E00023EA0E03DCF1200E21EA045143F48013A6
:1027F00032D322FA0CFE10EB0E0023FA0CFE41EB52
:102800000E01CCF1200E03FA0EFE10EB0E0051F17A
:102810000001B1F5801FCCF1200E32D201EB045142
:1028200012FA0EF2BDE8104058BF7047401C38BF86
:102830005FEA420218BF7047002814BF20F0010071
:1028400041F100014FEA410313F5001F38BF704703
:10285000A1F1C04100F040BB012A43EB0302ACF1FF
:10286000200CDCF11F0E32BF4FF0000E23FA0CF3E8
:1028700010EB030041EB0451B4EB115FD0D0A1EB9E
:10288000045101F5801149085FEA300001EB045161
:102890000ED350F1000038BF12FA0EFE08D1BDE889
:1028A0001040C9E7401C38BF5FEA4202CAD1C3E703
:1028B000BDE810404FEA410313F5001F38BF7047D1
:1028C000A1F1C04100F008BB9EEA445F08D011EAC4
:1028D0005E0FBDE8104004BF01F0004100207047CA
:1028E000BDE8104070B500F0A9FA00BF64FBBE3E21
:1028F0000000E0FF491058BFC1F140415B1058BFD4
:10290000C3F140438B42EFF3008070472DE9C04193
:1029100030B4DFF8A0C23CEA111418BF3CEA13142B
:1029200000F0EC8081EA03051CEA111444EAD57436
:1029300018BF1CEA131500F0C780A4EB05044FF084
:10294000004545EAC12145EAC32341EA505143EA23
:10295000525304F17F74994204F500344FEAC020C9
:102960004FEAC22208BF904200F09C804FEA1365F4
:102970000FF24016765D4FEA134506FB05F7C7F1E7
:10298000807706FB07F74FEAD737A7FB0368764245
:10299000C8F58038A7FB06CE38BFA8F1010807FBB1
:1029A00008E64FF0000EA6FB028CE6FB03CEDCF13E
:1029B000000CCEF1004E38BFAEF1010EA6FB0C5854
:1029C0004FF000074FF00005E6FB0E87A1FB08C69D
:1029D000A0FB07CE16EB0E0645F10005E1FB0765EF
:1029E00015F1E04E7EBFA4F580345FEA46066D41E6
:1029F00016F1800745F100054FEA17274FEA0666F2
:102A000047EA0567A6F1DE46B6F1805F4FEA152575
:102A10001FD9384624F0010C05EBC471BCF1FE6FE0
:102A200001EB0C1102D8F0BCBDE8008124425CBF70
:102A300001F5801E9EEAC47F02D4F0BCBDE800818F
:102A4000244238D4F0BCA1F1C041BDE8004100F0FF
:102A500043BA4FEAD22242EA43524FEAD323A7FBBA
:102A600002864FEAD02040EA415007FB03661EEA87
:102A70000E0F4FEAD12105FB026658BFA6EB0056A8
:102A8000B6EB00564FEA520E4EEAC37E18EB0E0E1E
:102A900056EB530EBDD518EB02085E417F1C55F175
:102AA0000005B6E74FF480154FF000074FF0000621
:102AB0004FF00008ADE7F0BC4FF0000001F1C0415D
:102AC00001F00041BDE8008111EA0C1F0CEA13156A
:102AD00000D00CE013EA0C1F00F025804FF000003E
:102AE000F0BC81EA030101F00041BDE80081F0BCC7
:102AF000BDE8004181EA030100F0EEB9F0BCBDE899
:102B0000004170B500F09AF9097EFC3E00F007B86C
:102B100081EA03014FF0000001F00041704781EAB3
:102B2000030100F0D9B9F0BCBDE800414FF000004E
:102B300021497047FFFDFBF9F7F5F4F2F0EEEDEBFC
:102B4000E9E8E6E4E3E1E0DEDDDBDAD8D7D5D4D3AB
:102B5000D1D0CFCDCCCBCAC8C7C6C5C4C2C1C0BFF7
:102B6000BEBDBCBBBAB9B8B7B6B5B4B3B2B1B0AFFD
:102B7000AEADACABAAA9A8A8A7A6A5A4A3A3A2A1E1
:102B8000A09F9F9E9D9C9C9B9A999998979796959C
:102B900095949393929191908F8F8E8E8D8C8C8B38
:102BA0008B8A8989888887878685858484838382C0
:102BB000828181800000FF070000F87F4FEA410317
:102BC0004FEA5353A3F58063D3F11E03C8BFD3F17B
:102BD000210C0CDD4FF0004242EAC12242EA505281
:102BE00032FA03FC8CEAE17CACEBE1707047102B0D
:102BF000C4BF0020704703F5787CBCF1FF3F04D0D0
:102C00006FF0004282EA2100704770B500F016F9BB
:102C10004992248000207047F2E710F0004248BF3C
:102C20004042B0FA80F310FA03F10AD0C3F11D0359
:102C300003F580634FEA415002EB035202EBD121CE
:102C400070474FF000007047B0FA80F310FA03F1BC
:102C50000AD0C3F11D0303F580634FEA41504FEAE8
:102C6000035202EBD12170474FF000007047000083
:102C700051EA030C17D41CF5801F58BFBCF5801F08
:102C800000F10680994218BF704708BF9042704714
:102C900007D711F5801F58BF13F5801F19D499422B
:102CA0007047894270471CF5801F08D5BCF5801F0E
:102CB000F7D58B4218BF704708BF824270474FF468
:102CC000001C1CEB410F38BF1CEB430F01D28B42A1
:102CD000704770B500F0B2F8922449004FF00051EF
:102CE0004FF08053FFF706BEDFF848C170B51CEA0D
:102CF000111E1EBF1CEA13159EEA0C0F95EA0C0F5D
:102D000000F06F8081EA030423EA4C134EEAD47E7C
:102D100021EA4C1141F4801143F48013AE44A1FB2D
:102D2000024CA0FB0365AEF17F7E361955EB0C0516
:102D3000A1FB034C4CF10003A0FB021C16EB0C069C
:102D4000654153F10003094218BF46F0010613F430
:102D5000007F0BD14FEA03314FEA0530340341EADB
:102D6000155140EA16506FF003020AE04FEAC32102
:102D70004FEAC520F40241EA555140EA56506FF03F
:102D8000020202EB2E4201EB025585EACE710AD017
:102D90005FEA440C18BF24F0004450F1000041F1F8
:102DA000000120EAD47040F2FE7C624500D270BD82
:102DB000A84214BF4FF080444FF04044002E08BF9B
:102DC0000024BEF1806FA8BFA1F1C041BDE87040F2
:102DD00080F282804FF0000001F1C04101F000411B
:102DE00070479EEA0C0F0CEA131518BF95EA0C0FFA
:102DF00006D04FF0000081EA030E0EF0004170BDD6
:102E000000F01CF88900013E00F007B800F009B896
:102E10004FEA430C5FEA5C5C08D081EA030100F0F2
:102E20005BB84FEA410C5FEA5C5CF6D14FF0000002
:102E3000014970470000FF070000F87F0EF1020E05
:102E40002EF0030E5EF8046B364205D4012A43EBE4
:102E5000030515F5001F12D8012841EB010C1CF5E4
:102E6000001F0CD80ED14FEAD17C15F5001F0CEBDA
:102E70004C0C0CF1020C08BF4CEBD37C04E04FF07F
:102E8000080C01E04FEAD37C0CEB4C0526FA05F662
:102E900006F00706B6F1040C06D20EEB860CBDE870
:102EA00070404CF0010C6047DFE80CF0090B0202A7
:102EB0004FF000414FF00000A1F5002170BD194610
:102EC0001046012851EB010418BFD4F5001484BF4B
:102ED000002001F0004170BD0808A0F500114FEA84
:102EE0003101704753EA010C17D41CF5801F58BFFD
:102EF000BCF5801F00F106808B4218BF704708BFE9
:102F00008242704707D713F5801F58BF11F5801F05
:102F100019D48B4270479B4270471CF5801F08D51F
:102F2000BCF5801FF7D5994218BF704708BF904283
:102F300070474FF4001C1CEB430F38BF1CEB410FD4
:102F400001D2994270470FB40CBC03BCFFF7C1BE5D
:102F50005FEA410C5FEA5C5CACF580635B1C39D4D2
:102F6000D3F1340240F34580B2F1200314DA4FF07C
:102F7000010C0CFA02FCACF101030340B3EB5C0260
:102F800020EA030008BF10EA0C0F98BF704710EB4F
:102F90000C0041F1000170470AD0C3F1200201FA90
:102FA00002FC012821FA03F101FA03F14CF10000BF
:102FB0004FF0010C0CFA03FCACF10103B0F1004F2F
:102FC00021EA030108BF11EA0C0F4FF0000088BF8F
:102FD00061447047B3F1FF3F28BF50EAC12C01F0B4
:102FE00000414FF0000084BF41F07C5141F470017A
:102FF0007047B3F5806FB8BF704770B5FFF71EFF1D
:1030000040DBB6BE91EA030F10B581F000413FF5F9
:10301000D1AB83F0004300F009B8000010B591EA8D
:10302000030F48BF83F000433FF5C4AB841A71EB34
:10303000030C07D212198CF0004C43EB0C03001B5D
:1030400061EB0C01DFF8A4E14FEA1154A4EB135C2F
:103050001EEA430F18BF9EEA445F00F0B08023EAE7
:103060006E03524221EA0451C3EB6E0338BF5B1E6C
:10307000DCF1200E25D322FA0CFE10EB0E0043FAF1
:103080000CFE41EB0E01CCF1200E03FA0EFE10EB0C
:103090000E0051F10001CCF1200E29D412FA0EF2EB
:1030A00001EB0451BDE8104058BF7047401C1CBFE5
:1030B000B2F1004F704700280CBF491C20F00100FE
:1030C000704712EB020E43EB030218BF4FF0010EE4
:1030D0004EEA4202ACF1200CDCF11E0E54D943FA48
:1030E0000CFE10EB0E0051F1FF31CCF11E0ED5D5C8
:1030F0000EF1010E12FA0EFE404141EB010101EB0F
:10310000445C5FEA5C5C10D910EBDE7001EB0451AB
:1031100038BFBEF1004FBDE8104018BF704700280F
:103120000CBF491C20F00100704730D24FEAD42C6C
:1031300011F5001124F400641BD0B1FA81F20B3AAE
:10314000A41AA41ED2F12003914030FA03F31943CC
:10315000904001EBCC71002C01EB0451BDE8104014
:10316000A8BF704701F1C0414FF0000001F00041DD
:103170007047B0FA80F310FA03F100D110BDE41AE1
:10318000173C4805C90AE4E701EB045110BD49109A
:1031900001EB0451BDE810404FEA300002E04FF06F
:1031A000000170474A0008BF0042F8D0B2F5001F86
:1031B00028BF704701F000414FF0000070479EEAC1
:1031C000445F07D011EA5E0FBDE8104004BF002144
:1031D00000207047BDE8104070B5FFF72FFE00BF1C
:1031E00040DFF63E83F00041104670470000E0FFEC
:1031F00043004FEAD30C4FEA3C0C43401FBF40074B
:103200000CF1605113F0FE4F70471CF0006F03D1BA
:1032100000200CF0004170470CF0004343EA50706E
:1032200010B540EACC0000F00EF800BF000000929C
:103230004FEA0001FFF750BE4FF000414FF0000091
:10324000A1F5002170470EF1020E2EF0030E5EF87C
:10325000044B244204D44FEA4102B2F17F4F11D80B
:103260004FEA4003B3F17F4F0CD80ED14FEAD07C28
:10327000B2F17F4F0CEB4C0C0CF1020C08BF4CEB85
:10328000D17C04E04FF0080C01E04FEAD17C0CEB5C
:103290004C0324FA03F404F00704B4F1040C06D23E
:1032A0000EEB840CBDE810404CF0010C6047DFE8E9
:1032B0000CF0070802024FF00040A0F5800010BD9E
:1032C0000846420018BFD2F1807288BF00F000406B
:1032D00010BD4FF04070E1EE100A7047FF2141EA47
:1032E000D050C005704700005FEA400C5FEA1C6CDC
:1032F000BCF17F0314D4D3F1170240F31C804FF0CC
:10330000010C0CFA02FCACF101030340B3EB5C02CC
:1033100020EA030008BF10EA0C0F88BF6044704722
:10332000B3F1FF3F28BF5FEA002C00F0004088BFE8
:1033300040F07E507047BCF1FF0FB8BF704710B52A
:10334000FFF781FF40DBB6BE000000000000000078
:10335000000000000000000000000000000000006D
:10336000000000000000000000000000000000005D
:10337000000000000000000000000000000000004D
:10338000000000000000000000000000000000003D
:1033900000000000000003800003800003800003A1
:1033A000800003800003800003800003800003800E
:1033B0000001000001000000000000000003800088
:1033C000038000000000000000000000000000007A
:1033D00000000000000000000000000000000000ED
:1033E000000E70000E70000E70000420000420001B
:1033F0000420000420000000000000000000000085
:1034000000000000000000000000000000000000BC
:1034100000000000000000000000000000000000AC
:103420000000000000000660000660000660000664
:1034300060000660003FF8003FF8000660000CC026
:10344000003FF8003FF8000CC0000CC0000CC000AA
:103450000CC0000CC00000000000000000000000D4
:10346000000000000000000000000001800001805A
:103470000007B0000FF0001870001870001C00006A
:103480000F800007E00000F0001830001C30001C26
:1034900070001FE0001BC00001800001800001805F
:1034A000000180000000000000000000000000009B
:1034B0000000000000000780000FC0001CE00018A2
:1034C00060001860001CE0000FF80007E0001FF02B
:1034D0000007380006180006180007380003F0003F
:1034E00001E00000000000000000000000000000FB
:1034F00000000000000000000000000000000000CC
:103500000000000003F00007F0000C60000C000059
:103510000C00000600000700000F9C001DFC0018B6
:10352000F0001870000FFC0007DC00000000000035
:10353000000000000000000000000000000000008B
:103540000000000000000000000380000380000372
:1035500080000100000100000100000100000000E7
:10356000000000000000000000000000000000005B
:10357000000000000000000000000000000000004B
:103580000000000000000000000000000000001823
:103590000000380000700000F00000E00000E000D3
:1035A00001C00001C00001C00001C00001C0000155
:1035B000C00000E00000E000007000007000003873
:1035C00000001800000000000000000000000000E3
:1035D0000000000000001800001C00000E00000E9B
:1035E0000000070000070000038000038000038044
:1035F0000003800003800003800007000007000034
:103600000F00000E00001C00001800000000000069
:103610000000000000000000000000000000018029
:10362000000180000180001DB8001FF80007E000C5
:1036300003C00003C0000660000660000000000038
:10364000000000000000000000000000000000007A
:10365000000000000000000000000000000000006A
:1036600000000000000000000000000001800001D8
:1036700080000180000180000180003FFC003FFCD1
:1036800000018000018000018000018000018000B5
:10369000000000000000000000000000000000002A
:1036A000000000000000000000000000000000001A
:1036B000000000000000000000000000000000000A
:1036C00000000000000000000000000000000000FA
:1036D000000000E00000C00001C000018000018087
:1036E00000030000030000000000000000000000D4
:1036F00000000000000000000000000000000000CA
:1037000000000000000000000000001FF8001FF88B
:1037100000000000000000000000000000000000A9
:103720000000000000000000000000000000000099
:103730000000000000000000000000000000000089
:103740000000000000000000000000000000000079
:103750000000000000000000000000000000000069
:10376000000003C00003C00003C000000000000010
:103770000000000000000000000000000000000049
:103780000018000018000038000030000070000031
:10379000600000600000C00000C0000180000180E7
:1037A000000300000300000600000600000E0000F9
:1037B0000C00001C000018000018000000000000B1
:1037C000000000000000000000000000000003C036
:1037D0000007E0000C30000C30001818001818002A
:1037E0001818001818001818001818001818000CDD
:1037F00030000C300007E00003C0000000000000B3
:1038000000000000000000000000000000000000B8
:103810000000000000000080000780001F80001DE5
:103820008000018000018000018000018000018093
:10383000000180000180000180000180001FF8006D
:103840001FF8000000000000000000000000000061
:10385000000000000000000000000000000007C0A1
:10386000001FF00038300030180030180000180039
:1038700000300000600001C0000380000600000C62
:1038800000001800003FF8003FF8000000000000B2
:103890000000000000000000000000000000000028
:1038A00000000000000003C0000FE0000C700000EA
:1038B000300000300000600003C00003E000007032
:1038C000000018000018000018001838001FF00051
:1038D0000FC0000000000000000000000000000019
:1038E000000000000000000000000000000000E0F8
:1038F0000001E00001E000036000066000066000D7
:103900000C60000C60001860003060003FF8003F61
:10391000F80000600003F80003F800000000000059
:103920000000000000000000000000000000000097
:103930000000000000001FF0001FF0001800001839
:1039400000001800001BC0001FF0001C3000001811
:10395000000018000018000018003030003FF00090
:103960000FC0000000000000000000000000000088
:10397000000000000000000000000000000000F84F
:103980000003F8000700000E00000C000018000003
:103990001BC0001FF0001C30001818001818001879
:1039A00018000C38000FF00003E0000000000000D9
:1039B0000000000000000000000000000000000007
:1039C0000000000000001FF8001FF8001818001881
:1039D000380000300000300000700000600000601F
:1039E0000000E00000C00000C00001C00001800035
:1039F0000180000000000000000000000000000046
:103A0000000000000000000000000000000007E0CF
:103A1000000FF0001C38001818001818000C3000B7
:103A200007E00007E0000C30001818001818001814
:103A300018001C38000FF00007E000000000000034
:103A40000000000000000000000000000000000076
:103A500000000000000007C0000FF0001C3000183C
:103A600018001818001818000C38000FF80003D8B8
:103A70000000180000300000700000E0001FC000CF
:103A80001F00000000000000000000000000000017
:103A90000000000000000000000000000000000026
:103AA0000000000000000000000003C00003C00090
:103AB00003C0000000000000000000000000000043
:103AC000000003C00003C00003C0000000000000AD
:103AD00000000000000000000000000000000000E6
:103AE00000000000000000000000000000000000D6
:103AF000000000F00000F00000F0000000000000F6
:103B00000000000000000000E00001C00001800093
:103B1000018000030000020000000000000000001F
:103B20000000000000000000000000000000000095
:103B300000000000001C00003C0000F00003C0007A
:103B40000F00003C0000F000003C00000F000003EC
:103B5000C00000F000003C00001C0000000000005D
:103B60000000000000000000000000000000000055
:103B70000000000000000000000000000000000045
:103B800000000000007FFC007FFC0000000000003F
:103B9000007FFC007FFC000000000000000000002F
:103BA0000000000000000000000000000000000015
:103BB0000000000000000000000000000000000005
:103BC000000000007000007800001E000007800068
:103BD00001E000007800001E0000780001E000070E
:103BE00080001E000078000070000000000000004F
:103BF00000000000000000000000000000000000C5
:103C000000000000000000000007C0000FE00018E6
:103C1000700018300018300000700000E00003C091
:103C20000003800003000000000000000007000007
:103C3000070000000000000000000000000000007D
:103C4000000000000000000000000000000003E091
:103C50000007F0000E38000C180018780018F80063
:103C600019D80019980019980019980018F8001828
:103C700078001800000C00000E180007F80003E0A0
:103C80000000000000000000000000000000000034
:103C90000000000000000000001F80001FC00001A5
:103CA000C0000360000360000630000630000C30E6
:103CB000000FF8001FF800180C00300C00FC7F000B
:103CC000FC7F000000000000000000000000000079
:103CD00000000000000000000000000000000000E4
:103CE000007FE0007FF00018380018180018180056
:103CF0001838001FF0001FF800181C00180C0018DE
:103D00000C00180C007FF8007FF00000000000009D
:103D100000000000000000000000000000000000A3
:103D200000000000000000000003EC000FFC001C7D
:103D30001C00180C00300C00300000300000300077
:103D400000300000300000180C001C1C000FF800B0
:103D500003F0000000000000000000000000000070
:103D60000000000000000000000000000000000053
:103D7000007FC0007FF000183800181800180C00F1
:103D8000180C00180C00180C00180C00180C001867
:103D900018001838007FF0007FE0000000000000ED
:103DA0000000000000000000000000000000000013
:103DB0000000000000000000007FF8007FF80018FD
:103DC00018001818001998001980001F80001F8023
:103DD000001980001998001818001818007FF800C2
:103DE0007FF800000000000000000000000000005C
:103DF00000000000000000000000000000000000C3
:103E0000003FFC003FFC000C0C000C0C000CCC0034
:103E10000CC0000FC0000FC0000CC0000CC0000C94
:103E200000000C00003FC0003FC000000000000088
:103E30000000000000000000000000000000000082
:103E400000000000000000000003EC000FFC001C5C
:103E50001C00180C00300C0030000030000030FE58
:103E60000030FE00300C00380C001C1C000FFC0061
:103E700003F000000000000000000000000000004F
:103E80000000000000000000000000000000000032
:103E9000007E7E007E7E001818001818001818009A
:103EA0001818001FF8001FF800181800181800183C
:103EB00018001818007E7E007E7E000000000000C2
:103EC00000000000000000000000000000000000F2
:103ED0000000000000000000001FF8001FF80001B3
:103EE00080000180000180000180000180000180CD
:103EF000000180000180000180000180001FF800A7
:103F00001FF800000000000000000000000000009A
:103F100000000000000000000000000000000000A1
:103F20000007FE0007FE00003000003000003000F7
:103F300000300000300030300030300030300030D1
:103F400030003060003FE0000F8000000000000003
:103F50000000000000000000000000000000000061
:103F60000000000000000000007F3E007F3E0018BF
:103F7000300018600018C0001980001B80001FC0AE
:103F8000001CE0001870001830001838007F1F0077
:103F90007F1F000000000000000000000000000083
:103FA0000000000000000000000000000000000011
:103FB000007F80007F80000C00000C00000C0000DF
:103FC0000C00000C00000C00000C0C000C0C000C91
:103FD0000C000C0C007FFC007FFC000000000000C7
:103FE00000000000000000000000000000000000D1
:103FF000000000000000000000F00F00F81F003873
:104000001C003C3C003C3C00366C00366C0033CC61
:104010000033CC00318C00300C00300C00FE7F00EF
:10402000FE7F000000000000000000000000000013
:104030000000000000000000000000000000000080
:104040000078FE0078FE001C18001E18001F1800E3
:104050001B18001B980019D80018D80018F8001871
:1040600078001838007F18007F180000000000005A
:104070000000000000000000000000000000000040
:1040800000000000000000000003C0000FF0001C52
:104090003800181800381C00300C00300C00300CB0
:1040A00000300C00381C001818001C38000FF000FD
:1040B00003C000000000000000000000000000003D
:1040C00000000000000000000000000000000000F0
:1040D000003FF0003FF8000C1C000C0C000C0C0022
:1040E0000C0C000C18000FF8000FE0000C00000C86
:1040F00000000C00003FC0003FC0000000000000B6
:1041000000000000000000000000000000000000AF
:1041100000000000000000000003C0000FF0001CC1
:104120003800181800381C00300C00300C00300C1F
:1041300000300C00381C001818001C38000FF0006C
:1041400007C00007CC000FFC000C38000000000086
:10415000000000000000000000000000000000005F
:10416000007FE0007FF000183800181800181800D1
:104170001838001FF0001FC00018E0001870001869
:1041800030001838007F1E007F0E00000000000085
:10419000000000000000000000000000000000001F
:1041A00000000000000000000007D8000FF8001C0D
:1041B00038001818001818001E00000FC00003F087
:1041C000000078001818001818001C38001FF000B4
:1041D0001BE00000000000000000000000000000E4
:1041E00000000000000000000000000000000000CF
:1041F000003FFC003FFC00318C00318C00318C0012
:10420000318C0001800001800001800001800001EC
:1042100080000180000FF0000FF00000000000009F
:10422000000000000000000000000000000000008E
:104230000000000000000000007E7E007E7E00186E
:104240001800181800181800181800181800181866
:10425000001818001818001818000C30000FF00093
:1042600003C000000000000000000000000000008B
:10427000000000000000000000000000000000003E
:10428000007F7F007F7F00180C000C18000C1800C6
:104290000C180006300006300003600003600003C5
:1042A000600001C00001C0000080000000000000AC
:1042B00000000000000000000000000000000000FE
:1042C000000000000000000000FE3F80FE3F803044
:1042D000060030060030860019CC0019CC001B6C9B
:1042E000001B6C001E7C000E38000E38000C1800FD
:1042F0000C1800000000000000000000000000009A
:1043000000000000000000000000000000000000AD
:10431000007E7E007E7E001818000C3000066000D3
:1043200003C00001800001800003C0000660000C93
:1043300030001818007E7E007E7E00000000000025
:10434000000000000000000000000000000000006D
:104350000000000000000000007C7E007C7E001851
:1043600018000C300006600006600003C0000180E9
:10437000000180000180000180000180000FF0003A
:104380000FF000000000000000000000000000002E
:10439000000000000000000000000000000000001D
:1043A000001FF8001FF800181800183000186000EF
:1043B00018C0000180000300000618000C18001847
:1043C00018003018003FF8003FF80000000000001F
:1043D00000000000000000000000000000000000DD
:1043E00000000000000001F00001F0000180000169
:1043F00080000180000180000180000180000180B8
:104400000001800001800001800001800001800027
:1044100001800001800001F00001F00000000000B8
:1044200000000000000000001800001800001C0040
:10443000000C00000E000006000006000003000053
:1044400003000001800001800000C00000C00000E7
:1044500060000060000070000030000038000018AC
:104460000000180000000000000000000000000034
:104470000000000000000F80000F8000018000019C
:104480008000018000018000018000018000018027
:104490000001800001800001800001800001800097
:1044A0000180000180000F80000F800000000000EC
:1044B000000000000000000000000000800001C0BB
:1044C0000003E0000770000630000C1800180C0014
:1044D00010040000000000000000000000000000C8
:1044E00000000000000000000000000000000000CC
:1044F00000000000000000000000000000000000BC
:1045000000000000000000000000000000000000AB
:10451000000000000000000000000000000000009B
:10452000000000000000000000000000000000008B
:10453000000000000000000000000000000000007B
:104540000000FFFF00FFFF000000000300000380E9
:104550000000E0000060000000000000000000001B
:10456000000000000000000000000000000000004B
:10457000000000000000000000000000000000003B
:10458000000000000000000000000000000000002B
:10459000000000000000000000000000000000001B
:1045A00000000FC0001FE00000300000300007F0E6
:1045B000001FF0003830003030003070001FFC0069
:1045C0000FBC000000000000000000000000000020
:1045D0000000000000000000000000000000780063
:1045E000007800001800001800001BE0001FF80011
:1045F0001C1800180C00180C00180C00180C0018DF
:104600000C001C18007FF8007BE000000000000098
:10461000000000000000000000000000000000009A
:10462000000000000000000000000000000000008A
:10463000000003EC000FFC001C1C00380C00300CC8
:1046400000300000300000380C001C1C000FF80087
:1046500003F0000000000000000000000000000067
:1046600000000000000000000000000000000078D2
:104670000000780000180000180007D8001FF8009C
:10468000183800301800301800301800301800308A
:1046900018001838001FFE0007DE000000000000B0
:1046A000000000000000000000000000000000000A
:1046B00000000000000000000000000000000000FA
:1046C000000007E0001FF800181800300C003FFC45
:1046D000003FFC00300000300000180C001FFC0000
:1046E00007F00000000000000000000000000000D3
:1046F000000000000000000000000000000001FCBD
:104700000003FC000600000600003FF8003FF80030
:104710000600000600000600000600000600000675
:1047200000000600003FF0003FF000000000000025
:104730000000000000000000000000000000000079
:104740000000000000000000000000000000000069
:10475000000007DE001FFE00183800301800301877
:10476000003018003018003018001838001FF8000A
:1047700007D8000018000018000038000FF0000FE4
:10478000C0000000000000000000000000007800F1
:10479000007800001800001800001BE0001FF00067
:1047A0001C380018180018180018180018180018DD
:1047B00018001818007E7E007E7E000000000000B9
:1047C00000000000000000000000000000000000E9
:1047D00000000000000001800001800000000000D7
:1047E00000001F80001F8000018000018000018008
:1047F000000180000180000180000180003FFC007A
:104800003FFC00000000000000000000000000006D
:10481000000000000000000000000000000000C0D8
:104820000000C0000000000000001FF0001FF000AA
:104830000030000030000030000030000030000088
:104840003000003000003000003000003000003048
:10485000000070001FE0001F80000000000000004A
:104860000000000000003C00003C00000C00000CB8
:1048700000000CF8000CF8000CC0000D80000F8048
:10488000000F00000F80000DC0000CE0003C7C0019
:104890003C7C000000000000000000000000000060
:1048A00000000000000000000000000000001F8069
:1048B000001F800001800001800001800001800055
:1048C0000180000180000180000180000180000162
:1048D00080000180003FFC003FFC00000000000061
:1048E00000000000000000000000000000000000C8
:1048F00000000000000000000000000000000000B8
:104900000000F77800FFFC0039CC00318C00318CBE
:1049100000318C00318C00318C00318C00FDEF00B7
:10492000FDEF00000000000000000000000000009B
:104930000000000000000000000000000000000077
:10494000000000000000000000007BE0007FF0009D
:104950001C3800181800181800181800181800182B
:1049600018001818007E7E007E7E00000000000007
:104970000000000000000000000000000000000037
:104980000000000000000000000000000000000027
:10499000000003C0000FF0001C3800381C00300C71
:1049A00000300C00300C00381C001C38000FF000E8
:1049B00003C0000000000000000000000000000034
:1049C00000000000000000000000000000000000E7
:1049D000000000000000000000007BE0007FF80005
:1049E0001C1800180C00180C00180C00180C0018EB
:1049F0000C001C18001FF8001BE000180000180035
:104A0000001800007F00007F000000000000000090
:104A10000000000000000000000000000000000096
:104A2000000007DE001FFE001838003018003018A4
:104A3000003018003018003018001838001FF80037
:104A400007D80000180000180000180000FE000041
:104A5000FE00000000000000000000000000000058
:104A6000000000000000000000003E78003EFC0056
:104A700007CC000700000600000600000600000644
:104A800000000600003FF0003FF0000000000000C2
:104A90000000000000000000000000000000000016
:104AA0000000000000000000000000000000000006
:104AB000000007F8000FF8001818001818001F80F1
:104AC000000FF00000F8001818001838001FF00060
:104AD0001FE00000000000000000000000000000D7
:104AE00000000000000000000000000000000C00BA
:104AF000000C00000C00000C00003FF0003FF00034
:104B00000C00000C00000C00000C00000C00000C5D
:104B100000000C1C0007FC0003F000000000000077
:104B20000000000000000000000000000000000085
:104B30000000000000000000000000000000000075
:104B400000007878007878001818001818001818F5
:104B5000001818001818001818001838000FFE0068
:104B600007DE000000000000000000000000000060
:104B70000000000000000000000000000000000035
:104B8000000000000000000000007C3E007C3E00B1
:104B90001818001818000C30000C300006600006D1
:104BA000600007E00003C00003C000000000000038
:104BB00000000000000000000000000000000000F5
:104BC00000000000000000000000000000000000E5
:104BD0000000783C00783C0031180033980033988E
:104BE000001AB0001EF0001EF0001C60000C6000F7
:104BF0000C60000000000000000000000000000049
:104C000000000000000000000000000000000000A4
:104C1000000000000000000000003E7C003E7C0020
:104C20000C300006600003C00001800003C00006D5
:104C300060000C30003E7C003E7C00000000000064
:104C40000000000000000000000000000000000064
:104C50000000000000000000000000000000000054
:104C600000007E1F007E1F00180C000C18000C189E
:104C70000006300006300003600003E00001C000C1
:104C800000C0000180000180000300003FC0003F21
:104C9000C000000000000000000000000000000054
:104CA000000000000000000000001FF8001FF800D6
:104CB00018300018600000C00001800003000006EA
:104CC00018000C18001FF8001FF80000000000007A
:104CD00000000000000000000000000000000000D4
:104CE00000000000000000E00001E0000180000181
:104CF00080000180000180000180000180000380AD
:104D00000007000003800001800001800001800096
:104D100001800001800001E00000E00000000000D0
:104D20000000000000000000000000000000018002
:104D300000018000018000018000018000018000EE
:104D400001800001800001800001800001800001DD
:104D5000800001800001800001800001800001804E
:104D600000018000000000000000000000000000C2
:104D70000000000000000700000780000180000123
:104D8000800001800001800001800001800001C0DE
:104D90000000E00001C000018000018000018000EF
:104DA0000180000180000780000700000000000073
:104DB00000000000000000000000000000000000F3
:104DC00000000000000000000000000000000000E3
:104DD0000E00001F18003BB80031F00000E000009A
:104DE00000000000000000000000000000000000C3
:104DF00000000000000000000000000000000000B3
:104E0000102840587088A0B8102840587088A0B862
:104E10004C5555555555A53F7751C1166CC156BFD8
:104E20009015CB19A001FA3EAD529C804F7E92BEE8
:104E3000C4B1B4BD9EEE213ED43888BEE9FAA8BD07
:104E400000004054FB21F93F3163621A61B4D03D48
:104E50000000601A61B4D03D7370032E8A19A33B21
:104E60000000002E8A19A33BC14920259A837B3973
:104E700000000000000000006E83F9A22915444ED6
:104E8000D15727FCC0DD34F5999562DB4190433C56
:104E9000AB6351FE61C5BBDE3A6E24B7E0D24D4232
:104EA000EA2E49061C92D1091CEB1DFE3EA729B132
:104EB000F53582E88444BB2E26709CE9417E5FB4C0
:104EC00039D69139F43953838B5F849C3B28F9BDE3
:104ED000FF97F81F0F9805DE8B112FEF1F6D0A5AF1
:104EE000CF7E366DB709CB27663F464F2DEA5F9ED2
:104EF000C7BA27757BF1E5EBF739073DEA92528A8D
:104F0000B15FFB6B085D8D1FA6F810111111813F79
:104F1000D561C119A0012ABF7DFEB157E31DC73E6F
:104F2000EB9C2B8AE6E55ABE7CD5CF5A3AD9E53DB3
:104F3000504F0008000000201C000000D4010008B1
:104F40006C4F00081C000020041A0000F00100084B
:104F500048330008110018000000000000000000A5
:0C4F600000000000000000000024F4002D
:040000050800019955
:00000001FF
