:020000040800F2
:100000002032002049020008531B0008D3170008C3
:10001000511B000819080008A11C0008000000007E
:10002000000000000000000000000000B51B0008F8
:100030005108000800000000871B0008B71B0008DB
:1000400063020008630200086302000863020008FC
:1000500063020008630200086302000863020008EC
:1000600063020008630200086302000863020008DC
:1000700063020008630200086302000863020008CC
:100080006302000863020008630200080000000029
:1000900000000000000000000000000063020008F3
:1000A000630200086302000863020008630200089C
:1000B000630200086302000863020008630200088C
:1000C000630200086302000863020008630200087C
:1000D00063020008630200086302000800000000D9
:1000E00063020008630200086302000800000000C9
:1000F0000000000000000000000000006302000893
:1001000000000000630200086302000863020008A8
:1001100000000000000000000000000000000000DF
:100120006302000863020008630200081D0800085B
:100130006302000800000000000000000000000052
:100140000000000000000000000000006302000842
:1001500063020008630200086302000863020008EB
:1001600063020008630200080000000000000000B5
:10017000000000000000000000000000000000007F
:100180000000000063020008000000000000000002
:10019000630200086302000800F002F800F045F86E
:1001A0000AA090E8000C82448344AAF10107DA45D2
:1001B00001D100F03AF8AFF2090EBAE80F0013F0DF
:1001C000010F18BFFB1A43F0010318473441000028
:1001D00054410000103A24BF78C878C1FAD85207B9
:1001E00024BF30C830C144BF04680C6070470000B1
:1001F0000023002400250026103A28BF78C1FBD830
:10020000520728BF30C148BF0B607047642900F017
:10021000D980002070471FB503F0DDF99DE8030089
:1002200000F096F91FBD10B510BD00F073FA11462D
:10023000FFF7F1FF02F0D2FA00F091FA03B4FFF7F2
:10024000F2FF03BC00F0C2FA0948804709480047A2
:10025000FEE7FEE7FEE7FEE7FEE7FEE7FEE7FEE776
:10026000FEE7FEE704480549054A064B70470000D3
:10027000911C000899010008200200202032002073
:10028000201200202012002070B5064600F044F92C
:10029000056806F10B0020F00704B4429CBF002063
:1002A00070BD2B466A68BAB11068A04210D304F141
:1002B000080188423CBF5068586007D35168101944
:1002C00041601168091B016058601460101D70BD09
:1002D00013465268002AE7D12146284600F024F947
:1002E0000028DED170BD70B50446051F00F014F97A
:1002F0000068002C14BF446870BD002C18BFAC42CD
:100300003CBF20466468F8D301680A18AA4218BFA7
:10031000456003D12A6805461144016028684119E7
:10032000A1421CBF6C6070BD6168696021680844AF
:10033000286070BD0FB41CB5074B06AA7B44694604
:100340000090059800F0A3F90020694600F0B2F98A
:100350001CBC5DF814FB0000750300002DE9F041A2
:100360000E460446002020622046E168884730B3EC
:10037000252805D0D4E901219047206A401CF2E7E6
:10038000E168204600278847050018D0A5F1410004
:10039000192802D820354FF40067324629462046F6
:1003A0002760FFF733FF40B1012804D0F61D26F087
:1003B00007060836D8E7361DD6E72846DAE7206A6A
:1003C000BDE8F0812DE9F04106460024106875294A
:1003D000314616A510D0AFF30080002802DA404263
:1003E00013A507E031688A0701D512A502E0490785
:1003F00004D511A5012401E0AFF3008000210A22F9
:1004000006F1240709E0B0FBF2FCB0FBF2F302FBBB
:100410001C00303078541846491C0028F3D123467C
:100420002A463046BDE8F04100F0D3B80000000095
:100430002D0000002B0000002000000040EA010316
:10044000024630B59B0710D14FF0013400E008C2DE
:1004500008C91D1B9D4315EAC41FF8D013F0FF0106
:1004600002F8011B0DD01B0AF8E711F8013B002B25
:1004700002F8013B05D011F8013B002B02F8013BCB
:10048000F3D130BD10B5431C02E010F8011B71B16F
:100490008107FAD14FF0013202C88C1A8C4314EA5A
:1004A000C211F9D0C01A0A0603D0C01E10BDC01A6E
:1004B00010BD0A0401D0801E10BD0902FCD0401EF0
:1004C00010BD4FF0000200B5134694469646203901
:1004D00022BFA0E80C50A0E80C50B1F12001BFF4FD
:1004E000F7AF090728BFA0E80C5048BF0CC05DF863
:1004F00004EB890028BF40F8042B08BF704748BFB1
:1005000020F8022B11F0804F18BF00F8012B704724
:10051000704770477047000000487047C4010020D2
:10052000704770477047704738B504460A46002048
:100530006946AFF30080002808BF38BD0246009925
:10054000204600F0C5F8012038BD012000F0DAB8DF
:10055000F8B5AFF30080054600200C46102000BF20
:100560000646A819A0420DD9324669460020AFF3CD
:100570000080070008BF00F0C5F80098A04218BF2F
:100580000546C419FFF7C8FF05600746F01D20F0B7
:1005900007004619284600F00AF8B44208BFF8BD23
:1005A000A21B31463868BDE8F84000F091B8002140
:1005B0000160C0E9011070471020704710B500F0CD
:1005C00083F8006810BD10B5044600F07DF80460A3
:1005D00010BD2DE9F0470D4699469246044600F1BC
:1005E00024080168880604D5E06921F01001216023
:1005F00000E00120A84201DD471B00E00027A169BF
:100600007A1902EB0900081AA0612078C00602D40A
:100610002046AFF30080002608E0D4E901211AF853
:1006200006009047206A401C761C20624E45F4DB91
:100630002078C0060AD52046AFF3008006E0D4E952
:10064000012130209047206A401C2062381EA7F10B
:100650000107F4DC07E0D4E9012118F80500904710
:10066000206A401C2062281EA5F10105F3DC20460B
:10067000AFF300802078000602D50220BDE8F087A5
:100680000120FBE701694A1C02610878704700B548
:100690008FB0CDE901310021059105497944CDE9BB
:1006A000031011466846FFF759FE0FB000BD000069
:1006B000E5FFFFFF0A6802F8010B0A6070470000BF
:1006C00000487047BC01002000487047BC01002072
:1006D000034640688C46002818BF88423CBF03464A
:1006E0004068F8D318681844884207D00CF103001A
:1006F00020F00700001D411A521A0146081D0A6029
:10070000FFF7F1BD10B500F039F8BDE8104000F07A
:100710002FB870477546FFF7D3FFAE460500694610
:10072000534620F00700854618B020B5FFF79AFD24
:10073000BDE820404FF000064FF000074FF00008E2
:100740004FF0000B21F00701AC46ACE8C009ACE863
:10075000C009ACE8C009ACE8C0098D46704710B5C7
:100760000446AFF300802046BDE81040FFF766BDA9
:10077000002801D000F02AB87047000010B5012809
:1007800005D0002103A000F027F8012010BD09A129
:10079000F8E7000053494752544D454D3A204F75F4
:1007A00074206F662068656170206D656D6F727969
:1007B000000000003A2048656170206D656D6F7221
:1007C0007920636F72727570746564000149182036
:1007D000ABBEFEE72600020070B505460C460A20B7
:1007E00000E06D1C00F011F835B128780028F8D130
:1007F00002E0641C00F009F814B120780028F8D158
:10080000BDE870400A20AFF3008008B569468DF856
:1008100000000320ABBE08BDFEE700000A480168E7
:10082000C1F3C06131B14FF000618160074901201F
:10083000087070470168C1F340610029F9D04FF09A
:100840000071816000F0BCB900640240000000202B
:10085000704700002DE9F04FB4382DED048B83B0C4
:100860009B4692460D4600B202F059FB9FED471B96
:1008700053EC112B02F0BAFB9FED461B53EC112BEE
:1008800002F0C6F902F0DEF8044602F033FE41EC55
:10089000100B01F041FA9FED418B51EC100B53EC22
:1008A000182B02F0A3FB41EC100B01F099FA53EC6A
:1008B000182B51EC100B02F0F7F802F001FB804608
:1008C000204602F017FE41EC100B01F0F9FA53EC50
:1008D000182B51EC100B02F089FB41EC100B01F0CE
:1008E0007FFA53EC182B51EC100B02F0DDF802F0FC
:1008F000E7FA0746C5F1780002F011FB8946054684
:1009000049EC190B204602F0F5FD41EC100B01F00B
:1009100003FA53EC192B51EC100B02F067FB41EC7E
:10092000100B01F05DFA53EC182B51EC100B02F098
:10093000BBF802F0C5FA064649EC195B204602F006
:10094000D9FD41EC100B01F0BBFA53EC192B51EC23
:10095000100B02F04BFB41EC100B01F041FA53EC91
:10096000182B51EC100B02F09FF802F0A9FA80B29C
:10097000CDE9000AB3B2BAB21FFA88F1584600F0C6
:10098000C1FE03B0BDEC048BBDE8F08F182D4454BC
:10099000FB210940000000000080664000000000CC
:1009A00000005E402DE9FF4FB4382DED088B83B079
:1009B00006B20C463046DDF8608002F0B0FA9FEDDA
:1009C0007AAB53EC1A2B02F011FB9FED79BB53EC81
:1009D0001B2B02F01DF902F035F80546204602F007
:1009E000B5FA0F46044647EC180B284602F082FD84
:1009F00041EC100B01F090F953EC182B51EC100B5B
:100A000002F0F4FA41EC100B01F0EAF99FED6A8B69
:100A100051EC100B53EC182B02F046F802F050FA90
:100A2000824647EC194B284602F064FD41EC100B5E
:100A300001F046FA53EC192B51EC100B02F0D6FAE8
:100A400041EC100B01F0CCF953EC182B51EC100BCE
:100A500002F02AF802F034FA5A3E814636B23046A5
:100A600002F05DFA53EC1A2B02F0C0FA53EC1B2B88
:100A700002F0CEF801F0E6FF0546404602F066FAC5
:100A80008B4604464BEC190B284602F033FD41EC33
:100A9000100B01F041F953EC192B51EC100B02F043
:100AA000A5FA41EC100B01F09BF953EC182B51EC1B
:100AB000100B01F0F9FF02F003FA80464BEC194BE2
:100AC000284602F017FD41EC100B01F0F9F953EC48
:100AD000192B51EC100B02F089FA41EC100B01F0CC
:100AE0007FF953EC182B51EC100B01F0DDFF02F0F5
:100AF000E7F90746B43630B202F011FA53EC1A2B7C
:100B000002F074FA53EC1B2B02F082F801F09AFF0A
:100B100005464BEC194B02F0EDFC41EC100B01F0DB
:100B2000FBF853EC192B51EC100B02F05FFA41EC7F
:100B3000100B01F055F953EC182B51EC100B01F090
:100B4000B3FF02F0BDF906464BEC194B284602F004
:100B5000D1FC41EC100B01F0B3F953EC192B51EC23
:100B6000100B02F043FA41EC100B01F039F953EC91
:100B7000182B51EC100B01F097FF02F0A1F9014680
:100B80000FFA89F20FFA8AF00E9B8DE80D000BB276
:100B900032B239B20FFA88F000F0B6F903B0BDEC0A
:100BA000088BBDE8FF8F0000182D4454FB2109403D
:100BB00000000000008066400000000000005E4071
:100BC00072B6FEE72DE9F05F1D46DDF828B0141E71
:100BD000884606463BDD002D39DDF02E37DAB8F1C8
:100BE000F00F34DA002E02DA901904B20026B8F1C0
:100BF000000F04DA03EB080005B24FF00008002CE8
:100C000025DD002D23DD3019F02802DDC6F1F000CE
:100C100004B208EB0500F02802DDC8F1F00005B2CF
:100C2000002011E0002708EB090A08E0F0190AF09B
:100C3000FF01C0B25A4600F043F97F1CBFB2A74281
:100C4000F4DB09F1010080B28146A842EADBBDE88D
:100C5000F09F08B5F023002100901A46084600F0E6
:100C600001F808BD2DE9FF5F8B460E989246010AF8
:100C700001EB0020009987B29946521AA3EB0B00B2
:100C800012FB00F040004FF48074B0FBF4F104FB61
:100C90001101411AB1FBF4F8B0FBF4F104FB1106A9
:100CA0006000FFF7F1FA05465FF0000025F81070CC
:100CB000401CA042FAD3A9F10100C3B2AAF101007D
:100CC000C2B25946009800F029FC002704E02146F2
:100CD000284600F087FC7F1C4745F8D31EB1B1B20F
:100CE000284600F07FFC04B02846BDE8F05FFFF71F
:100CF000FABA00002DE9F74FDFF8B8B0894682B0A4
:100D0000DBF804100026CF88DBF804108D88E91D7D
:100D1000019121F00701491B01F0FF0ADBF80410E3
:100D2000DBF804300968DB88DBF804008088C01D2C
:100D3000C008203A10FB02F003FB0010009033E0E3
:100D40000198C1080098012901FB06000BD0022977
:100D50000BD0017842780904807841EA022141EA07
:100D60000008002419E0007801E0008840BA8046BD
:100D7000F7E7291B51440120491E884010EA080F5B
:100D8000584601D0028800E04288029809F0FF012D
:100D90002044C0B200F094F8641CAC42E9D309F1DD
:100DA00001001FFA80F9761CBE42C9D305B0BDE828
:100DB000F08F0000100000202DE9FF4F0746500083
:100DC0001446C0F1000A83B00E460819C2F10108AA
:100DD000C1B24FF001090025F8B2069A00F070F890
:100DE000301BC1B2F8B2069A00F06AF83819F1B2B5
:100DF000C0B2069A00F064F8F1B2381B57E000BFA9
:100E0000B8F1000F09DB0AF102000FFA80FA641E44
:100E100008EB0A0024B20FFA80F809F102000FFA79
:100E200080F96D1C08EB09002DB20FFA80F87819D3
:100E3000019006EB040B0BF0FF01C0B2069A00F024
:100E40003FF8781B00900BF0FF01C0B2069A00F04B
:100E500037F80198A6EB040B0BF0FF01C0B2069A1D
:100E600000F02EF800980BF0FF01C0B2069A00F0D7
:100E700027F83819019006EB050B0BF0FF01C0B203
:100E8000069A00F01DF8381B00900BF0FF01C0B26D
:100E9000069A00F015F80198A6EB050B0BF0FF0180
:100EA000C0B2069A00F00CF800980BF0FF01C0B237
:100EB000069A00F005F8A542A2DB07B0BDE8F08F66
:100EC0002DE9F0418046100A00EB022086B20F4661
:100ED00004250820FFF7D8F90446002024F8106004
:100EE000401C80B2A842F9D33B4642461946104600
:100EF00000F014FB2046082100F074FB2046BDE8FA
:100F0000F041FFF7F0B900002DE9F04F89B01D4620
:100F10001446DDE91223A94205DD0E462946354671
:100F20000646204634461EB2B54204DD2B46354601
:100F300016B222463446A94205DD0E4629463546FC
:100F40000646204634460FFA83F80E4641451AD12C
:100F50000146844201DA204601E000DD214612B25A
:100F6000824201DA104602E08A4200DD1146149AFC
:100F7000091A491C00920AB201233146FFF722FEEA
:100F800009B0BDE8F08F211A8146A2EB090000B23A
:100F90000490A8EB060000B20690101B00B205906A
:100FA000A8EB050009B200B203910790A91B00202D
:100FB00009B2CDE901018346454501D1AA4602E0C7
:100FC000681E0FFA80FA374623E000BFDDE9011002
:100FD00091FBF0F1069A01EB09009BFBF2F202EBA8
:100FE0000901039B019A00B21A44049B09B20192C1
:100FF0009B44884202DD024608461146149A091AAB
:10100000491C00920AB201233946FFF7DBFD7F1C21
:101010003FB25745DADD05987D1B45430498BE1B5A
:1010200046431EE00798069995FBF0F096FBF1F217
:1010300002EB0901059A20441544049A00B209B252
:101040001644884202DD024608461146149A091ADF
:10105000491C00920AB201233946FFF7B3FD7F1CF9
:101060003FB24745DEDD8BE72DE9F0411D460E46D8
:101070000746144607E02B46224631463846FFF71E
:101080009BFE641EE4B2002CF5D1BDE8F0810000A7
:10109000FF4900B54FF4806088614102FD488161DD
:1010A00008218161EF2000F0FFFAEB2000F0FCFA4C
:1010B000142000F011FBFE2000F0F6FAEF2000F003
:1010C000F3FAEB2000F0F0FA142000F005FB842086
:1010D00000F0EAFA402000F0FFFA852000F0E4FA80
:1010E000FF2000F0F9FA862000F0DEFAFF2000F081
:1010F000F3FA872000F0D8FAFF2000F0EDFA8820FC
:1011000000F0D2FA0A2000F0E7FA892000F0CCFAC9
:10111000212000F0E1FA8A2000F0C6FA002000F059
:10112000DBFA8B2000F0C0FA802000F0D5FA8C208A
:1011300000F0BAFA012000F0CFFA8D2000F0B4FAE6
:10114000012000F0C9FA8E2000F0AEFAFF2000F076
:10115000C3FA8F2000F0A8FAFF2000F0BDFAB620F5
:1011600000F0A2FA002000F0B7FA002000F0B4FA74
:10117000362000F099FA282000F0AEFA3A2000F06C
:1011800093FA052000F0A8FA902000F08DFA0820CC
:1011900000F0A2FA082000F09FFA082000F09CFA64
:1011A000082000F099FABD2000F07EFA062000F039
:1011B00093FABC2000F078FA002000F08DFAFF20AE
:1011C00000F072FA602000F087FA012000F084FA43
:1011D000042000F081FAC32000F066FA132000F02A
:1011E0007BFAC42000F060FA132000F075FAC920E1
:1011F00000F05AFA222000F06FFABE2000F054FAF4
:10120000112000F069FAE12000F04EFA102000F001
:1012100063FA0E2000F060FADF2000F045FA21208A
:1012200000F05AFA0C2000F057FA022000F054FAAD
:10123000F02000F039FA452000F04EFA092000F0C5
:101240004BFA082000F048FA082000F045FA262062
:1012500000F042FA2A2000F03FFAF12000F024FAD0
:10126000432000F039FA702000F036FA722000F0C6
:1012700033FA362000F030FA372000F02DFA6F20D4
:1012800000F02AFAF22000F00FFA452000F024FACC
:10129000092000F021FA082000F01EFA082000F0D2
:1012A0001BFA262000F018FA2A2000F015FAF32085
:1012B00000F0FAF9432000F00FFA702000F00CFA69
:1012C000722000F009FA362000F006FA372000F00C
:1012D00003FA6F2000F000FAED2000F0E5F91B2082
:1012E00000F0FAF90B2000F0F7F9AE2000F0DCF97D
:1012F000772000F0F1F9CD2000F0D6F9632000F05E
:10130000EBF9702000F0D0F9072000F0E5F9072094
:1013100000F0E2F9042000F0DFF90E2000F0DCF923
:101320000F2000F0D9F9092000F0D6F9072000F0CD
:10133000D3F9082000F0D0F9032000F0CDF9E8201F
:1013400000F0B2F9342000F0C7F9622000F0ACF9E7
:10135000182000F0C1F90D2000F0BEF9712000F056
:10136000BBF9ED2000F0B8F9702000F0B5F970205D
:1013700000F0B2F9182000F0AFF90F2000F0ACF93E
:10138000712000F0A9F9EF2000F0A6F9702000F01C
:10139000A3F9702000F0A0F9632000F085F918206F
:1013A00000F09AF9112000F097F9712000F094F9FB
:1013B000F12000F091F9702000F08EF9702000F01B
:1013C0008BF9182000F088F9132000F085F97120BE
:1013D00000F082F9F32000F07FF9702000F07CF932
:1013E000702000F079F9642000F05EF9282000F008
:1013F00073F9292000F070F9F12000F06DF9012057
:1014000000F06AF9F12000F067F9002000F064F9BB
:10141000072000F061F9662000F046F93C2000F05A
:101420005BF9002000F058F9CD2000F055F9672055
:1014300000F052F9452000F04FF9452000F04CF93A
:10144000102000F049F9002000F046F9002000F0DB
:1014500043F9002000F040F9672000F025F9002052
:1014600000F03AF93C2000F037F9002000F034F9A0
:10147000002000F031F9002000F02EF9012000F0EA
:101480002BF9542000F028F9102000F025F903E092
:101490000004024000000240322000F01DF99820B4
:1014A00000F01AF9742000F0FFF8102000F014F991
:1014B000852000F011F9802000F00EF9002000F0E6
:1014C0000BF9002000F008F94E2000F005F900208B
:1014D00000F002F9982000F0E7F83E2000F0FCF858
:1014E000072000F0F9F8352000F0DEF8212000F0A8
:1014F000DBF8112000F0D8F829205DF804EB00F0AB
:10150000D3B8000001494880704700001000002057
:10151000014948607047000010000020F0B5044603
:101520001D4616460F462A2000F0BEF8002000F0A7
:10153000D3F8204600F0D0F8002000F0CDF8304677
:1015400000F0CAF82B2000F0AFF8002000F0C4F83B
:10155000384600F0C1F8002000F0BEF8284600F040
:10156000BBF8BDE8F0402C2000F09EB8014908808F
:1015700070470000100000202DE9F047054689461D
:1015800016461046FEF77EFF154CC0B2EFB26168FA
:10159000C5F196088988414341451DDD00250AE0D3
:1015A000725D49463846FFF7A5FB60686D1CEDB2D9
:1015B00000793844C7B26168898898FBF1F0A84285
:1015C000EED1BDE8F08749462846FFF793FB6068F7
:1015D000761C8088284485B23278002AF3D1F0E75F
:1015E000100000202DE9F047294F82464FF080601F
:1015F0000E464FF48069B861264904208861264D63
:101600004FF0000885F80080244C0321204600F0AC
:1016100005F92349201DCA781258CB786FF30F02C1
:1016200032431A50C8782058CA7840F01000A050B1
:101630007804A0608010A060CB781A485246E35826
:10164000164E03F0C0030C36402BCB78A6F1040CE9
:101650000BD043F80C20CA789051CA782046A25883
:10166000C97842F00102625005E09A51CA7842F806
:101670000C00F2E700BF29780029FBD0032100F01D
:10168000CDF885F80080C7F81890BDE8F087000015
:1016900000040240000002400000002000640240FC
:1016A000D24100080C30014000B50246084B4FF40F
:1016B000806001049961074B042001049961104680
:1016C00000F062FA02494FF48060886100BD0000BA
:1016D000000402400000024000B50246074B4FF4F0
:1016E000806001049961064904208861104600F079
:1016F0004BFA02494FF48060886100BD000402404B
:10170000000002402DE9FF4F83B01446DDE91008C8
:101710000D461E46021BA3EB050100D552420029CF
:1017200000DA49428A4207DD2946254606464FF03F
:1017300001098CB298B201E04FF00009B54205D919
:10174000294635468EB22146044688B2711B09B23D
:101750000091011B00D549420FFA81FB00990BEB68
:10176000DB72A1EB62010FFA81FA844201D20120FF
:1017700001E04FF0FF30019026E000BFC8F100000B
:1017800000EBD07047100DE0B9F1000F03D0E01965
:10179000E9B2C0B202E0E019C1B2E8B2039AFFF7C1
:1017A0008FFB7F1CB7EB580FEEDDAAEB0B0000B2EE
:1017B0005FEA000A06D50198204484B2009850449C
:1017C0000FFA80FA6D1CADB2B542D7D907B0BDE8AB
:1017D000F08FFEE7044908B50A6802430A60096809
:1017E0000140009108BD000030380240044908B5AE
:1017F0000A6802430A6009680140009108BD0000C0
:1018000040380240044908B50A6802430A60096882
:101810000140009108BD000044380240034A515C79
:10182000425822F00102425070470000D2410008A5
:10183000F0B50A680F2692FAA2F2B2FA82F30324F4
:101840008AE001279F4015EA07027DD04D68012DEF
:1018500001D0022D1BD18D68876892FAA2FCBCFAD8
:101860008CFC4FEA4C0C04FA0CFC27EA0C0792FAA9
:10187000A2FCBCFA8CFC4FEA4C0C05FA0CF52F4389
:101880008760CD684768554397432F4347600F698A
:10189000D0F80CC092FAA2F5B5FA85F54FEA450EDC
:1018A00004FA0EF52CEA050C92FAA2F5B5FA85F5C4
:1018B0006D00AF404CEA070CC0F80CC04D68022D1B
:1018C00033D192FAA2F5B5FA85F5082D15D2D1F8E3
:1018D00014C0056A92FAA2F7B7FA87F7BF0006FAB2
:1018E00007F7BD4392FAA2F7B7FA87F7BF000CFAE1
:1018F00007FC45EA0C05056217E0D1F814E0476AD9
:10190000150A95FAA5FCBCFA8CFC4FEA8C0C06FA79
:101910000CFC95FAA5F5B5FA85F5AD0027EA0C079C
:101920000EFA05FE47EA0E0747624D68076892FA0D
:10193000A2FCBCFA8CFC4FEA4C0C04FA0CFE27EA21
:101940000E0792FAA2F200E005E0B2FA82F252002B
:1019500095402F4307605B1C0A681546DA407FF408
:1019600070AF0020F0BD4FF47A71B0FBF1F14FF091
:10197000E020491E4161002181610521016170471C
:1019800010B503680122C3F380132BBBD1E90023F8
:101990001A43D1E9023423431A430B691A434B69B2
:1019A0001A438B691A43CB691A430B6A1A430368BB
:1019B0004FF6BF74A3431A43026042684B6922F09A
:1019C000040242EA134242600A6AB2F5005F02D1A1
:1019D000898C89B201610022C16921F40061C16171
:1019E000104610BD01490860704700001800002033
:1019F000F0B587B018216846FEF763FD0120FFF7B8
:101A0000E9FE0220FFF7E6FE0E484FF44021816117
:101A10000D4D07154102A9610C21009101260024FA
:101A2000CDE90164039469460494FFF701FF009730
:101A3000CDE901640394694628460494FFF7F8FE53
:101A400007B0F0BD000002400004024010B590B0A5
:101A500028216846FEF735FD18210AA8FEF731FD5A
:101A60004FF48050FFF7CEFE0120FFF7B3FEA02019
:101A70000A9002200B9003200024CDE90C040520DD
:101A8000CDE90E400AA92E48FFF7D2FE2E482D4977
:101A9000C2788A58C37822F0606242F0C062CA50AD
:101AA000C2788A58C37822F0C00242F04002CA507D
:101AB000C2788A58C37822F4403242F48032CA5045
:101AC000C2788A58C37822F49072CA50C2788A5871
:101AD000C37822F40072CA50C2788A58C37842F49C
:101AE0008062CA50C2788A58C37822F4C052CA5061
:101AF000C2788A58C37822F4C042CA501149C278C9
:101B000014315258C07822F0040242504FF48270CF
:101B1000CDE900404815CDE9044003940A20CDE901
:101B20000840029406940794084C69462046FFF743
:101B300027FF606820F01000606010B010BD00004A
:101B40000000024000640240EA3500080030014015
:101B5000FEE7FEE730B500F00703C3F10704042CED
:101B600000D90424181D072801D2002300E0DB1E41
:101B7000012505FA04F0401E084098409D406D1E66
:101B80001540284330BD704700BF09498968C1F33B
:101B900040010029F9D00649087300BF044989684B
:101BA00001F001010029F9D00149097B70470000CB
:101BB0000030014070477047304810B5016821F08F
:101BC000070141F003010160016801F007010329E9
:101BD000FAD12B48016841F440410160294801686D
:101BE00021F0F80141F080010160016841F001013C
:101BF00001600168C1F340010029FAD0214941F692
:101C00000812091D0B68204C23401A430A600A6819
:101C100022F440320A60016841F08071016001687D
:101C2000C1F340610029FAD016480830016821F05C
:101C3000F0010160016821F4E05141F4805101603C
:101C4000016821F460410160016821F0030141F065
:101C500002010160016801F00C010829FAD10B4C66
:101C60002046FFF780FE2046FFF7BCFE05488C307B
:101C7000016821F08071016010BD0000003C02404D
:101C800000700040003802400080BFFF00E1F50511
:101C90000248016841F470010160704788ED00E07E
:101CA000FEE703B401984100009850EAC12018BF34
:101CB00004204A0D18BF40F0010040F2FF72B2EB61
:101CC000515F08BF40F00200012808BF052002B0A4
:101CD00070470907090E002804DB00F1E02080F8B6
:101CE0000014704700F00F0000F1E02080F8141D90
:101CF00070470000064900F0070208684FF6FF032E
:101D0000184040EA0220034A104308607047000070
:101D10000CED00E00000FA0510B52F499FED2C1BDB
:101D20002DED020B84B0059820F000408842D8BF0A
:101D30009DED040B2DDD2949884209D1049840B955
:101D40004FF00100FEF73FFC00F012FD06B010BDA1
:101D500005DB9DED040B00F0FFFC06B010BD6846EE
:101D60009DED040B00F010F910F0030004BF9DED91
:101D7000021B9DED000B0CD001280ED09DED021B27
:101D80009DED000B022817D0012000F04DFC06B09D
:101D900010BD00F015FB06B010BD9DED021B9DEDC2
:101DA000000B012000F040FC51EC100B00F03EFE57
:101DB00006B041EC100B10BD00F002FB51EC100B13
:101DC00000F034FE06B041EC100B10BD0000000026
:101DD0000000000000000000FB21E93F0000F07F50
:101DE00010B52DED020B2DED088B84B09DED0C0B85
:101DF00051EC100B01F02EFA41EC180B9DED0C0B81
:101E000053EC182B51EC100B01F08AFA41EC190B32
:101E10000D989FED290B10F0004F53EC102B51EC57
:101E2000190B9FED21AB9FED22BB0ED001F0A2F864
:101E30000ED953EC1B2B51EC190B01F0D5F91CD228
:101E400014E000BF41EC180B17E001F093F806D244
:101E500053EC1A2B51EC180B01F062FAF2E753EC39
:101E60001B2B51EC190B01F0BFF906D853EC1A2BC0
:101E700051EC180B00F018FEE4E78DED028B9DEDA0
:101E80000C0B18EE901A10EE900A8DED000B61F31A
:101E90001E0003909DED020B04B0BDEC088B02B058
:101EA00010BD000000000000000000000000F03F36
:101EB000000000000000E03F000000000000E0BF64
:101EC00010B52F499FED2C1B2DED020B84B005980A
:101ED00020F000408842DCBF00209DED040B32DD85
:101EE0002849884209D1049840B94FF00100FEF713
:101EF0006AFB00F03DFC06B010BD05DB9DED040B58
:101F000000F02AFC06B010BD68469DED040B00F001
:101F10003BF810F0030011D0012818D09DED021BF2
:101F20009DED000B02281AD000F04AFA51EC100B7C
:101F300000F07CFD06B041EC100B10BD9DED021BC6
:101F40009DED000B012000F06FFB06B010BD9DED74
:101F5000021B9DED000B00F033FA06B010BD01200E
:101F600000F062FB51EC100B00F060FD06B041EC9C
:101F7000100B10BD00000000000000000000000079
:101F8000FB21E93F0000F07F2DE9F14F04462DEDE4
:101F9000020B2DED088B8AB09FEDE70B80ED020B55
:101FA000139EE74826F0004585420ADC9DED120BA2
:101FB000002084ED000B0AB0BDEC088B03B0BDE837
:101FC000F08FE0489FEDE0AB9FEDE1BBA84247DD1D
:101FD000E14F9FEDE39B9FEDE48B9DED120B53ECE6
:101FE0001A2B51EC100B002E1CDD01F099F941EC7D
:101FF000100BBD4208D053EC1B2B51EC100B01F021
:102000008FF9C4E900010BE053EC192B51EC100BD4
:1020100001F086F953EC182B01F082F9C4E90001B4
:102020000120C8E700F040FD41EC100BBD4208D094
:1020300053EC1B2B51EC100B00F036FDC4E90001F2
:102040000BE053EC192B51EC100B00F02DFD53EC71
:10205000182B00F029FDC4E900014FF0FF30AAE77A
:10206000C348A84279DB9DED120B51EC100B00F038
:10207000A9FB41EC180B9FEDC00B53EC102B00F0AB
:10208000B5FF9FEDBF1B53EC112B00F00DFD00F0D1
:1020900017FF074600F043FF41EC190B53EC1A2BD6
:1020A00000F0A4FF53EC182B01F02EF941EC180BB3
:1020B00053EC1B2B51EC190B00F098FFDFF8C8A272
:1020C00041EC100B4FEA15580125FA4453EC102B44
:1020D00051EC180B01F024F9032DC4E900013DD0A7
:1020E000C1F30A5005EB4511A8EB000011398142FC
:1020F00034DA0AEB051BB0EE48AA9BED000BF0EEBC
:1021000068AA53EC102B51EC190B00F06FFF41EC57
:102110001B0B51EC1A0B53EC1B2B01F001F941EC9A
:10212000180B51EC1A0B53EC182B01F0F9F853EC87
:102130001B2B01F0F5F89BED020B41EC1A0B53EC55
:10214000102B51EC190B00F051FF53EC1A2B01F03E
:10215000E7F841EC100B6D1CB8E70EE0002EA8BFAD
:102160003846BFF628AF94ED000B51EC100B00F091
:102170005DFCC4E9000178421DE7C6F3130040F49A
:10218000801EC6F30A50A0F2F530471100F01F057B
:10219000C5F12000DDF848B00890002006900790B7
:1021A0000520EC467949002D07EB0002794408BF71
:1021B00051F8221009D051F8223001EB8201AB40D6
:1021C0004A68089922FA01F11943A1FB0E26A1FBE6
:1021D0000B131A449A4234BF0123002303EB060871
:1021E0000CEB8003D3E901A60E448E4234BF0121DB
:1021F000002192448A4411B1924502D903E09245EC
:1022000001D2012100E00021C3E901A641444CF8BC
:102210002010011EA0F10100C4DC029800F1005062
:10222000850F0298DDE903678000DDF8148000F077
:1022300076FE41EC1A0B304600F088FE9FED541BF1
:1022400053EC112B00F0D2FE41EC1B0B384600F092
:102250007DFE9FED511B53EC112B00F0C7FE41ECAE
:10226000180B404600F072FE9FED4D1B53EC112BF6
:1022700000F0BCFE41EC190B51EC180B53EC192B80
:1022800000F012FC53EC1B2B00F00EFC53EC1A2B4D
:1022900000F00AFCCDE90801002008909DED080B34
:1022A00053EC1A2B51EC100B01F03AF853EC1B2BAA
:1022B00001F036F853EC182B01F032F853EC192BDF
:1022C00001F022F89FED381B53EC112B00F08EFE2D
:1022D0009FED370B41EC180B53EC102B9DED080BC9
:1022E00051EC100B00F082FE53EC182B00F0DCFBDD
:1022F0009FED310B41EC180B53EC102B9DED080BAF
:1023000051EC100B00F072FE53EC182B00F0CCFBDC
:1023100041EC100B139810F0004F06D06D4251ECB9
:10232000100B00F083FB41EC100B284684ED000BF2
:1023300041E6000000000000000000000000000076
:10234000FB21E93F7CD9024000004054FB21F93FCA
:102350003163621A61B4D03DFB21F93F00000000F7
:102360000000601A61B4D03D7370032E8A19A33B3C
:10237000FB2139410000000083C8C96D305FE43F94
:10238000000000000000E03F42210000902000001B
:10239000000000000000103E000000000000103CA3
:1023A000000000000000103A182D4454FB21F93DB4
:1023B0003326A611460B113C00000054FB21F93DC9
:1023C00010B52DED040B2DED088B82B0B0EE419AC7
:1023D000F0EE619A0B9820F000449FED4BABB4F106
:1023E000795F11DA9DED0A0B51EC100B00F068FDDE
:1023F000002801BFB0EE4A0AF0EE6A0A02B0BDEC56
:10240000088B04BF04B010BD9DED0A0B53EC102BDC
:1024100051EC100B00F0EAFD41EC180B3C48062192
:10242000B0EE480AF0EE680A784400F081F853EC08
:10243000182B51EC100B00F0D9FD9DED0A0B41EC6F
:102440001B0B53EC192B51EC100B00F0CFFD41ECA2
:10245000190B53EC1B2B51EC180B00F0C7FD53EC80
:10246000192B00F05DFF9FED2C0B41EC190B53EC89
:10247000102B51EC180B00F0B9FD41EC100B284863
:10248000844210DA53EC192B51EC100B00F048FF8A
:1024900053EC1A2B00F038FF41EC100B02B0BDECEE
:1024A000088B04B010BD1F48A042BCBF9FED1E1B8F
:1024B0008DED001B06DBA4F50010019000200090BC
:1024C0009DED001B51EC100B53EC112B00F028FF7D
:1024D0009DED000B41EC180B53EC102B51EC1A0B3B
:1024E00000F01EFF41EC1A0B53EC192B51EC180BAA
:1024F00000F016FF53EC1A2B00F006FF41EC100B16
:10250000CCE7000000000000000000000000F03FE9
:10251000B41D000000000000000000000000E03FCB
:102520003333D33F0000E93F000000000000D23FFA
:1025300070B504462DED028B4D1E00EBC500B0EECC
:10254000408AF0EE608A90ED000B35F0060017D05F
:1025500053EC182B51EC100B00F048FD41EC100B24
:102560006D1E04EBC50090ED001B51EC100B53ECFD
:10257000112B00F099FA41EC100B35F00600E7D171
:10258000022D36D0042D1CD0062D1CBFBDEC028BB5
:1025900070BD53EC182B51EC100B00F027FD94ED9F
:1025A0000A1B53EC112B00F07FFA53EC182B00F0B0
:1025B0001DFD94ED081B53EC112B00F075FA41EC56
:1025C000100B53EC182B51EC100B00F00FFD94ED99
:1025D000061B53EC112B00F067FA53EC182B00F09C
:1025E00005FD94ED040B53EC102B00F05DFA41EC6B
:1025F000100B53EC182B51EC100B00F0F7FC94ED82
:10260000021B53EC112B00F04FFA53EC182B00F087
:10261000EDFC94ED001B53EC112B00F045FABDECE2
:10262000028B41EC100B70BD31B504462DED040B4F
:102630002DED0A8BB0EE41BAF0EE61BA0B989DED2C
:102640000A0B20F00040B0F1795F0DDA51EC100B6D
:10265000FFF727FB042808BF00F09AF89DED0A0B4E
:10266000BDEC0A8B05B030BD53EC102B51EC100BB8
:1026700000F0BCFC41EC180B9DED0A0B53EC182B41
:1026800051EC100B00F0B2FC41EC190B2C48B0EEF1
:10269000480AF0EE680A05217844FFF749FF9FEDEC
:1026A0002ACBB0EE40AAF0EE60AA9CB353EC1C2BF0
:1026B00051EC190B00F09AFC41EC1C0B53EC1A2B5B
:1026C00051EC190B00F092FC9FED210B41EC190B22
:1026D00053EC102B51EC1B0B00F088FC53EC192B26
:1026E00000F01EFE53EC182B00F080FC53EC1B2B6B
:1026F00000F016FE53EC1C2B00F012FE9DED0A1BA1
:1027000053EC112B00F000FEBDEC0A8B05B041EC40
:10271000100B30BDFFE753EC1A2B51EC180B00F0F7
:1027200065FC53EC1C2B00F0BFF953EC192B00F0A7
:102730005DFC9DED0A1B53EC112B00F0B5F9E3E7AE
:102740003C1C000000000000495555555555C5BFBB
:10275000000000000000E03F10B553EC102B51ECDE
:10276000100B00F0A1F941EC100B10BD00000000AF
:102770009FED050B10B553EC102B51EC100B00F036
:1027800047FA41EC100B10BD0000000000000000F3
:102790009FED050B10B553EC102B51EC100B00F016
:1027A00025FC41EC100B10BD0000000000000010E3
:1027B0000349484300E000BF401EFCD270470000C0
:1027C000A086010082B0CDE9000121F00040019017
:1027D0009DED000B02B051EC100B70478EB005243C
:1027E000724E012704EB840000EBC40006EB800569
:1027F0006FA12846FDF722FE601C05F8320F641E0B
:102800006F70EFD5002086F833006BA16748FDF7A5
:1028100015FE66486CA13430FDF710FE63486EA1CA
:102820006830FDF70BFE61486FA19C30FDF706FE96
:102830005E4871A1D030FDF701FE4FF48045284677
:10284000FEF7E0FFAE033046FEF7D0FF0320FFF7B0
:1028500051FA6D4C20680022C0F302200F21FFF7CF
:1028600079F9014667173846FFF733FAFFF7A4F9FD
:102870002846FEF7C7FF3046FEF7B8FF0320FFF7F4
:1028800039FA20680022C0F302200F21FFF762F915
:1028900001463846FFF71DFAFFF7AAF82802FEF7AF
:1028A00099FF20680022C0F302201146FFF752F979
:1028B00001463B20FFF70DFA54486D03C0F8005164
:1028C000FFF7C4F8534952480024CA788258CB789D
:1028D00022F00102C2508560AA108260CA78825834
:1028E000CB7842F01002C250CA788258C97842F0C0
:1028F000040242504848416841F0020141600168C9
:1029000041F040010160FEF7C3FB3D0C2846FEF795
:10291000A0F94248FEF7FCFD2846FEF7F3FD002033
:10292000FEF724FE002302220F211846FDF792FF36
:10293000002301220A211E20FDF78CFF0023012223
:102940000A213C20FDF786FF002302220F215A2096
:10295000FDF780FF782100230A220846FEF784FB5A
:102960000526782100230A220846FEF77DFB002376
:102970000122642120B20096FEF714F8641CA4B270
:10298000224627A101A8FDF7D5FC01AAA021142009
:10299000FEF7F2FD3220FFF70BFF601E2B460122EF
:1029A000642100B20096FDF7FDFFDAE71C0000206D
:1029B00046696C65200000005475726E206F6E20B1
:1029C0006C696768740000005475726E206F6666EB
:1029D000206C6967687400005475726E206F6E20F9
:1029E00068656174657200005475726E206F66666A
:1029F00020686561746572004F70656E207468654B
:102A00002066696C650000000CED00E004E000E069
:102A100000640240EA350008003001400400002054
:102A2000416E676C653A20256400000081F000412A
:102A3000704780F00040704721F00041704720F05F
:102A40000040704721F00042A2F16052B2F5801FB1
:102A500001F0004328BFD2F17F6C0BD95FEA001C64
:102A600043EAC20242EB507018BF704728BF20F003
:102A700001007047B2F5801FBCBF184670474FEA8F
:102A8000410C1CF5001F02D2084600F0A9BD70B52C
:102A900000F056FB00000089FFF7F6BF4FF0004042
:102AA000A0F580007047000010B591EA030F48BF01
:102AB00083F0004300F13C84841A71EB030C05D2CF
:102AC000121943EB0C03001B61EB0C01DFF824E14E
:102AD0004FEA1154A4EB135C1EEA430F18BF9EEAA1
:102AE000445F73D023EA0E03DCF1200E21EA045187
:102AF00043F4801332D322FA0CFE10EB0E0023FABB
:102B00000CFE41EB0E01CCF1200E03FA0EFE10EB91
:102B10000E0051F10001B1F5801FCCF1200E32D230
:102B200001EB045112FA0EF2BDE8104058BF704795
:102B3000401C38BF5FEA420218BF7047002814BF2C
:102B400020F0010041F100014FEA410313F5001F9D
:102B500038BF7047A1F1C04100F040BB012A43EBF0
:102B60000302ACF1200CDCF11F0E32BF4FF0000E5F
:102B700023FA0CF310EB030041EB0451B4EB115FAB
:102B8000D0D0A1EB045101F5801149085FEA300073
:102B900001EB04510ED350F1000038BF12FA0EFEC3
:102BA00008D1BDE81040C9E7401C38BF5FEA4202C7
:102BB000CAD1C3E7BDE810404FEA410313F5001F37
:102BC00038BF7047A1F1C04100F008BB9EEA445FE6
:102BD00008D011EA5E0FBDE8104004BF01F00041CB
:102BE00000207047BDE8104070B500F0A9FA00BFA2
:102BF00064FBBE3E0000E0FF491058BFC1F14041F8
:102C00005B1058BFC3F140438B42EFF30080704725
:102C10002DE9C04130B4DFF8A0C23CEA111418BF5E
:102C20003CEA131400F0EC8081EA03051CEA11145D
:102C300044EAD57418BF1CEA131500F0C780A4EB52
:102C400005044FF0004545EAC12145EAC32341EAA6
:102C5000505143EA525304F17F74994204F5003411
:102C60004FEAC0204FEAC22208BF904200F09C8089
:102C70004FEA13650FF24016765D4FEA134506FBE7
:102C800005F7C7F1807706FB07F74FEAD737A7FBB1
:102C900003687642C8F58038A7FB06CE38BFA8F196
:102CA000010807FB08E64FF0000EA6FB028CE6FBCE
:102CB00003CEDCF1000CCEF1004E38BFAEF1010EB8
:102CC000A6FB0C584FF000074FF00005E6FB0E87FF
:102CD000A1FB08C6A0FB07CE16EB0E0645F10005CA
:102CE000E1FB076515F1E04E7EBFA4F580345FEA95
:102CF00046066D4116F1800745F100054FEA17279A
:102D00004FEA066647EA0567A6F1DE46B6F1805F40
:102D10004FEA15251FD9384624F0010C05EBC47184
:102D2000BCF1FE6F01EB0C1102D8F0BCBDE80081D4
:102D300024425CBF01F5801E9EEAC47F02D4F0BC31
:102D4000BDE80081244238D4F0BCA1F1C041BDE807
:102D5000004100F043BA4FEAD22242EA43524FEA1E
:102D6000D323A7FB02864FEAD02040EA415007FB5D
:102D700003661EEA0E0F4FEAD12105FB026658BF1B
:102D8000A6EB0056B6EB00564FEA520E4EEAC37E53
:102D900018EB0E0E56EB530EBDD518EB02085E4134
:102DA0007F1C55F10005B6E74FF480154FF0000782
:102DB0004FF000064FF00008ADE7F0BC4FF0000008
:102DC00001F1C04101F00041BDE8008111EA0C1F92
:102DD0000CEA131500D00CE013EA0C1F00F025805C
:102DE0004FF00000F0BC81EA030101F00041BDE8B2
:102DF0000081F0BCBDE8004181EA030100F0EEB9BA
:102E0000F0BCBDE8004170B500F09AF9097EFC3EC7
:102E100000F007B881EA03014FF0000001F0004123
:102E2000704781EA030100F0D9B9F0BCBDE8004168
:102E30004FF0000021497047FFFDFBF9F7F5F4F270
:102E4000F0EEEDEBE9E8E6E4E3E1E0DEDDDBDAD845
:102E5000D7D5D4D3D1D0CFCDCCCBCAC8C7C6C5C4A3
:102E6000C2C1C0BFBEBDBCBBBAB9B8B7B6B5B4B3BA
:102E7000B2B1B0AFAEADACABAAA9A8A8A7A6A5A4A5
:102E8000A3A3A2A1A09F9F9E9D9C9C9B9A99999869
:102E90009797969595949393929191908F8F8E8E0C
:102EA0008D8C8C8B8B8A8989888887878685858499
:102EB00084838382828181800000FF070000F87F85
:102EC0004FEA41034FEA5353A3F58063D3F11E0346
:102ED000C8BFD3F1210C0CDD4FF0004242EAC12201
:102EE00042EA505232FA03FC8CEAE17CACEBE1702E
:102EF0007047102BC4BF0020704703F5787CBCF1ED
:102F0000FF3F04D06FF0004282EA2100704770B5A5
:102F100000F016F94992248000207047F2E710F083
:102F2000004248BF4042B0FA80F310FA03F10AD0E1
:102F3000C3F11D0303F580634FEA415002EB0352D6
:102F400002EBD12170474FF000007047B0FA80F3D8
:102F500010FA03F10AD0C3F11D0303F580634FEAB1
:102F600041504FEA035202EBD12170474FF000006D
:102F70007047000051EA030C17D41CF5801F58BF9E
:102F8000BCF5801F00F10680994218BF704708BF4A
:102F90009042704707D711F5801F58BF13F5801F67
:102FA00019D499427047894270471CF5801F08D593
:102FB000BCF5801FF7D58B4218BF704708BF82420F
:102FC00070474FF4001C1CEB410F38BF1CEB430F44
:102FD00001D28B42704770B500F0B2F892244900DC
:102FE0004FF000514FF08053FFF706BEDFF848C1A5
:102FF00070B51CEA111E1EBF1CEA13159EEA0C0FC9
:1030000095EA0C0F00F06F8081EA030423EA4C1369
:103010004EEAD47E21EA4C1141F4801143F480132E
:10302000AE44A1FB024CA0FB0365AEF17F7E3619D6
:1030300055EB0C05A1FB034C4CF10003A0FB021C5B
:1030400016EB0C06654153F10003094218BF46F028
:10305000010613F4007F0BD14FEA03314FEA05302C
:10306000340341EA155140EA16506FF003020AE0BA
:103070004FEAC3214FEAC520F40241EA555140EA24
:1030800056506FF0020202EB2E4201EB025585EA28
:10309000CE710AD05FEA440C18BF24F0004450F10E
:1030A000000041F1000120EAD47040F2FE7C62454C
:1030B00000D270BDA84214BF4FF080444FF040448E
:1030C000002E08BF0024BEF1806FA8BFA1F1C0414F
:1030D000BDE8704080F282804FF0000001F1C041F5
:1030E00001F0004170479EEA0C0F0CEA131518BF5F
:1030F00095EA0C0F06D04FF0000081EA030E0EF0A7
:10310000004170BD00F01CF88900013E00F007B8D6
:1031100000F009B84FEA430C5FEA5C5C08D081EA32
:10312000030100F05BB84FEA410C5FEA5C5CF6D14A
:103130004FF00000014970470000FF070000F87FD2
:103140000EF1020E2EF0030E5EF8046B364205D42B
:10315000012A43EB030515F5001F12D8012841EBA6
:10316000010C1CF5001F0CD80ED14FEAD17C15F5CF
:10317000001F0CEB4C0C0CF1020C08BF4CEBD37C89
:1031800004E04FF0080C01E04FEAD37C0CEB4C0557
:1031900026FA05F606F00706B6F1040C06D20EEB89
:1031A000860CBDE870404CF0010C6047DFE80CF085
:1031B000090B02024FF000414FF00000A1F5002181
:1031C00070BD19461046012851EB010418BFD4F513
:1031D000001484BF002001F0004170BD0808A0F574
:1031E00000114FEA3101704753EA010C17D41CF566
:1031F000801F58BFBCF5801F00F106808B4218BFAE
:10320000704708BF8242704707D713F5801F58BF29
:1032100011F5801F19D48B4270479B4270471CF5F3
:10322000801F08D5BCF5801FF7D5994218BF70479D
:1032300008BF904270474FF4001C1CEB430F38BF8F
:103240001CEB410F01D2994270470FB40CBC03BC78
:10325000FFF7C1BE5FEA410C5FEA5C5CACF58063DE
:103260005B1C39D4D3F1340240F34580B2F1200322
:1032700014DA4FF0010C0CFA02FCACF1010303402C
:10328000B3EB5C0220EA030008BF10EA0C0F98BF02
:10329000704710EB0C0041F1000170470AD0C3F1F8
:1032A000200201FA02FC012821FA03F101FA03F1DC
:1032B0004CF100004FF0010C0CFA03FCACF10103DF
:1032C000B0F1004F21EA030108BF11EA0C0F4FF0E3
:1032D000000088BF61447047B3F1FF3F28BF50EA48
:1032E000C12C01F000414FF0000084BF41F07C513F
:1032F00041F470017047B3F5806FB8BF704770B587
:10330000FFF71EFF40DBB6BE91EA030F10B581F058
:1033100000413FF5D1AB83F0004300F009B8000055
:1033200010B591EA030F48BF83F000433FF5C4ABEB
:10333000841A71EB030C07D212198CF0004C43EB8A
:103340000C03001B61EB0C01DFF8A4E14FEA115400
:10335000A4EB135C1EEA430F18BF9EEA445F00F023
:10336000B08023EA6E03524221EA0451C3EB6E039C
:1033700038BF5B1EDCF1200E25D322FA0CFE10EBC9
:103380000E0043FA0CFE41EB0E01CCF1200E03FAC5
:103390000EFE10EB0E0051F10001CCF1200E29D4ED
:1033A00012FA0EF201EB0451BDE8104058BF70470D
:1033B000401C1CBFB2F1004F704700280CBF491CD5
:1033C00020F00100704712EB020E43EB030218BF1E
:1033D0004FF0010E4EEA4202ACF1200CDCF11E0E61
:1033E00054D943FA0CFE10EB0E0051F1FF31CCF131
:1033F0001E0ED5D50EF1010E12FA0EFE404141EB24
:10340000010101EB445C5FEA5C5C10D910EBDE70FB
:1034100001EB045138BFBEF1004FBDE8104018BFAA
:10342000704700280CBF491C20F00100704730D2C3
:103430004FEAD42C11F5001124F400641BD0B1FA2A
:1034400081F20B3AA41AA41ED2F12003914030FA63
:1034500003F31943904001EBCC71002C01EB0451B4
:10346000BDE81040A8BF704701F1C0414FF0000017
:1034700001F000417047B0FA80F310FA03F100D177
:1034800010BDE41A173C4805C90AE4E701EB0451F2
:1034900010BD491001EB0451BDE810404FEA300067
:1034A00002E04FF0000170474A0008BF0042F8D028
:1034B000B2F5001F28BF704701F000414FF0000037
:1034C00070479EEA445F07D011EA5E0FBDE81040E6
:1034D00004BF002100207047BDE8104070B5FFF721
:1034E0002FFE00BF40DFF63E83F0004110467047DC
:1034F0000000E0FF43004FEAD30C4FEA3C0C43408E
:103500001FBF40070CF1605113F0FE4F70471CF0D5
:10351000006F03D100200CF0004170470CF0004315
:1035200043EA507010B540EACC0000F00EF800BF3E
:10353000000000924FEA0001FFF750BE4FF000413B
:103540004FF00000A1F5002170470EF1020E2EF0A1
:10355000030E5EF8044B244204D44FEA4102B2F158
:103560007F4F11D84FEA4003B3F17F4F0CD80ED1F3
:103570004FEAD07CB2F17F4F0CEB4C0C0CF1020CFB
:1035800008BF4CEBD17C04E04FF0080C01E04FEA9F
:10359000D17C0CEB4C0324FA03F404F00704B4F1DF
:1035A000040C06D20EEB840CBDE810404CF0010C6C
:1035B0006047DFE80CF0070802024FF00040A0F57A
:1035C000800010BD0846420018BFD2F1807288BF4B
:1035D00000F0004010BD4FF04070E1EE100A70475F
:1035E000FF2141EAD050C00570471028405870882C
:1035F000A0B8000000000000000000000000000073
:1036000000000000000000000000000000000000BA
:10361000000000000C000C000C000C000C000C0062
:103620000C000C0000000C00000000000000000076
:103630000000000000001DC01DC008800880088038
:10364000000000000000000000000000000000007A
:10365000000000000D800D800D800D803FC01B001C
:103660003FC01B001B001B001B00000000000000EF
:10367000000004001F803180318038001E000F00E0
:103680000380318031803F0004000400000000000E
:103690000000000018002400240018C007801E004D
:1036A0003180024002400180000000000000000064
:1036B0000000000000000F001800180018000C00A7
:1036C0001D80370033001D80000000000000000056
:1036D00000000000000007000700020002000200D6
:1036E00000000000000000000000000000000000DA
:1036F000000000000300030006000E000C000C0098
:103700000C000C000E000600030003000000000087
:1037100000000000180018000C000600060006005B
:103720000600060006000C001C0018000000000047
:1037300000000000060006003FC03FC00F001F80D1
:1037400019800000000000000000000000000000E0
:1037500000000000000000000400040004003F809E
:10376000040004000400000000000000000000004D
:103770000000000000000000000000000000000049
:1037800000000000060004000C0008000800000013
:1037900000000000000000000000000000003F806A
:1037A0000000000000000000000000000000000019
:1037B0000000000000000000000000000000000009
:1037C000000000000C000C000000000000000000E1
:1037D000000000C000C0018001800300030006005B
:1037E0000C000C0018001800300030000000000031
:1037F000000000000E001B003180318031803180DC
:10380000318031801B000E0000000000000000002D
:103810000000000006003E0006000600060006004C
:103820000600060006003FC0000000000000000087
:10383000000000000F001980318031800300060075
:103840000C00180030003F80000000000000000065
:10385000000000003F006180018003001F00038022
:103860000180018061803F00000000000000000036
:1038700000000000070007000F000B001B001300F2
:1038800033003F8003000F800000000000000000B4
:10389000000000001F801800180018001F00118091
:1038A0000180018021801F00000000000000000056
:1038B0000000000007801C0018003000370039802D
:1038C0003180318019800F000000000000000000EE
:1038D000000000007F004300030006000600060011
:1038E00006000C000C000C000000000000000000AE
:1038F000000000001F003180318031801F003180C6
:103900003180318031801F00000000000000000085
:10391000000000001E0033003180318033801D80A4
:103920000180030007003C000000000000000000D0
:10393000000000000000000000000C000C0000006F
:10394000000000000C000C0000000000000000005F
:103950000000000000000000000003000300000061
:10396000000000000600040008000800000000003D
:1039700000000000000000C0030004001800600008
:1039800018000400030000C0000000000000000058
:103990000000000000000000000000007FC00000E8
:1039A0007FC00000000000000000000000000000D8
:1039B000000000000000600018000400030000C0C8
:1039C0000300040018006000000000000000000078
:1039D0000000000000001F003180318001800700DE
:1039E0000C000C0000000C000000000000000000B3
:1039F000000000000E001100210021002700290016
:103A000029002700200011000E0000000000000027
:103A10000000000000003F000F000900198019801D
:103A20001F8030C030C079E00000000000000000BE
:103A30000000000000007F003180318031803F00B5
:103A40003180318031807F000000000000000000E4
:103A50000000000000001F4030C0604060006000B7
:103A60006000604030801F00000000000000000087
:103A70000000000000007F00318030C030C030C046
:103A800030C030C031807F00000000000000000026
:103A90000000000000007F803080308032003E0057
:103AA0003200308030807F80000000000000000085
:103AB0000000000000007FC03040304032003E0077
:103AC0003200300030007C000000000000000000E8
:103AD0000000000000001E803180608060006000F7
:103AE00067C0618031801F000000000000000000FE
:103AF0000000000000007BC03180318031803F80B9
:103B00003180318031807BC0000000000000000067
:103B10000000000000003FC006000600060006008E
:103B20000600060006003FC0000000000000000084
:103B30000000000000001FC003000300030003009A
:103B40006300630063003E0000000000000000000E
:103B50000000000000007BC03180330036003C00D4
:103B60003E003300318079C00000000000000000FA
:103B70000000000000007E00180018001800180067
:103B80001840184018407FC00000000000000000EE
:103B9000000000000000E0E060C071C07BC06AC0AF
:103BA0006EC064C060C0FBE00000000000000000C8
:103BB00000000000000073C0318039803D803580F6
:103BC00037803380318079800000000000000000E1
:103BD0000000000000001F00318060C060C060C0B5
:103BE00060C060C031801F000000000000000000C5
:103BF0000000000000007F00318031803180318082
:103C00003F00300030007E00000000000000000097
:103C10000000000000001F00318060C060C060C074
:103C200060C060C031801F000CC01F800000000019
:103C30000000000000007F003180318031803E00B4
:103C40003300318031807CE0000000000000000083
:103C50000000000000001F803180318038001F000C
:103C60000380318031803F00000000000000000030
:103C70000000000000007F804C804C804C800C00D5
:103C80000C000C000C003F000000000000000000D1
:103C90000000000000007BC0318031803180318025
:103CA0003180318031801F000000000000000000E2
:103CB0000000000000007BC0318031801B001B0031
:103CC0001B000A000E000E000000000000000000B3
:103CD000000000000000FBE060C064C06EC06EC069
:103CE0002A803B803B803180000000000000000003
:103CF0000000000000007BC031801B000E000E00A1
:103D00000E001B0031807BC000000000000000009E
:103D100000000000000079E030C019800F000600AC
:103D20000600060006001F800000000000000000E2
:103D30000000000000003F802180230006000400F6
:103D40000C00188030803F80000000000000000060
:103D500000000000078006000600060006000600BE
:103D600006000600060006000600078000000000AE
:103D7000000030003000180018000C000C00060095
:103D8000030003000180018000C000C000000000AB
:103D9000000000001E0006000600060006000600E7
:103DA000060006000600060006001E0000000000D7
:103DB000000004000A000A0011002080208000009A
:103DC00000000000000000000000000000000000F3
:103DD00000000000000000000000000000000000E3
:103DE00000000000000000000000000000000000D3
:103DF000FFE00800040002000000000000000000D6
:103E000000000000000000000000000000000000B2
:103E1000000000000000000000001F000180018081
:103E20001F80318033801DC00000000000000000B2
:103E3000000000007000300030003700398030C0D2
:103E400030C030C039807700000000000000000062
:103E5000000000000000000000001E803180608033
:103E60006000608031801F00000000000000000042
:103E7000000000000380018001801D80338061808C
:103E80006180618033801DC00000000000000000E0
:103E9000000000000000000000001F00318060C032
:103EA0007FC0600030C01F800000000000000000E4
:103EB0000000000007E00C000C003F800C000C002C
:103EC0000C000C000C003F8000000000000000000F
:103ED000000000000000000000001DC03380618071
:103EE0006180618033801D80018001801F0000009F
:103EF0000000000070003000300037003980318051
:103F00003180318031807BC0000000000000000063
:103F1000000000000600060000001E00060006006B
:103F20000600060006003FC0000000000000000080
:103F3000000000000600060000003F000300030030
:103F40000300030003000300030003003E00000021
:103F500000000000700030003000378036003C0068
:103F60003C003600330077C0000000000000000075
:103F7000000000001E000600060006000600060005
:103F80000600060006003FC0000000000000000020
:103F9000000000000000000000007F8036C036C036
:103FA00036C036C036C076E00000000000000000D9
:103FB0000000000000000000000077003980318020
:103FC0003180318031807BC00000000000000000A3
:103FD000000000000000000000001F00318060C0F1
:103FE00060C060C031801F000000000000000000C1
:103FF000000000000000000000007700398030C0A1
:1040000030C030C039803700300030007C00000004
:10401000000000000000000000001DC0338061802F
:104020006180618033801D800180018007C00000B5
:10403000000000000000000000007B801CC0180091
:104040001800180018007F000000000000000000A9
:10405000000000000000000000001F8031803C00D4
:104060001F00038031803F000000000000000000BE
:10407000000000001800180018007F001800180049
:104080001800180018800F00000000000000000059
:1040900000000000000000000000738031803180CB
:1040A0003180318033801DC000000000000000001E
:1040B000000000000000000000007BC03180318063
:1040C0001B001B000E000E0000000000000000009E
:1040D00000000000000000000000F1E060C064C0CB
:1040E0006EC03B803B80318000000000000000007B
:1040F000000000000000000000007BC01B000E005C
:104100000E000E001B007BC000000000000000003D
:104110000000000000000000000079E030C01980BD
:1041200019800B000F00060006000C003E00000086
:10413000000000000000000000003F80218003001C
:104140000E00180030803F800000000000000000DA
:104150000000000006000C000C000C000C000C001D
:1041600018000C000C000C000C0006000000000001
:10417000000000000600060006000600060006001B
:10418000060006000600060006000600000000000B
:10419000000000000C0006000600060006000600F5
:1041A000030006000600060006000C0000000000E8
:1041B0000000000000000000000000001800248043
:1041C00003000000000000000000000000000000EC
:1041D0000000102840587088A0B8000000000000BF
:1041E0004C5555555555A53F7751C1166CC156BF15
:1041F0009015CB19A001FA3EAD529C804F7E92BE25
:10420000C4B1B4BD9EEE213ED43888BEE9FAA8BD43
:1042100000004054FB21F93F3163621A61B4D03D84
:104220000000601A61B4D03D7370032E8A19A33B5D
:104230000000002E8A19A33BC14920259A837B39AF
:1042400000000000000000006E83F9A22915444E12
:10425000D15727FCC0DD34F5999562DB4190433C92
:10426000AB6351FE61C5BBDE3A6E24B7E0D24D426E
:10427000EA2E49061C92D1091CEB1DFE3EA729B16E
:10428000F53582E88444BB2E26709CE9417E5FB4FC
:1042900039D69139F43953838B5F849C3B28F9BD1F
:1042A000FF97F81F0F9805DE8B112FEF1F6D0A5A2D
:1042B000CF7E366DB709CB27663F464F2DEA5F9E0E
:1042C000C7BA27757BF1E5EBF739073DEA92528AC9
:1042D000B15FFB6B085D8D1FA6F810111111813FB6
:1042E000D561C119A0012ABF7DFEB157E31DC73EAC
:1042F000EB9C2B8AE6E55ABE7CD5CF5A3AD9E53DF0
:1043000020430008000000201C000000D401000829
:104310003C4300081C00002004320000F0010008AB
:1043200000000000F23500080B0010000000000043
:0C43300000000000000000000024F40069
:040000050800019955
:00000001FF
