:020000040800F2
:10000000201A002041020008E3110008790E0008C0
:10001000E1110008DD0500083113000800000000B0
:100020000000000000000000000000004512000871
:10003000150600080000000017120008471200080B
:100040005B0200085B0200085B0200085B0200081C
:100050005B0200085B0200085B0200085B0200080C
:100060005B0200085B0200085B0200085B020008FC
:100070005B0200085B0200085B0200085B020008EC
:100080005B0200085B0200085B0200080000000041
:100090000000000000000000000000005B020008FB
:1000A0005B0200085B0200085B0200085B020008BC
:1000B0005B0200085B0200085B0200085B020008AC
:1000C0005B0200085B0200085B0200085B0200089C
:1000D0005B0200085B0200085B02000800000000F1
:1000E0005B0200085B0200085B02000800000000E1
:1000F0000000000000000000000000005B0200089B
:10010000000000005B0200085B0200085B020008C0
:1001100000000000000000000000000000000000DF
:100120005B0200085B0200085B020008E1050008B2
:100130005B0200080000000000000000000000005A
:100140000000000000000000000000005B0200084A
:100150005B0200085B0200085B0200085B0200080B
:100160005B0200085B0200080000000000000000C5
:10017000000000000000000000000000000000007F
:10018000000000005B02000800000000000000000A
:100190005B0200085B02000800F002F800F040F883
:1001A0000AA090E8000C82448344AAF10107DA45D2
:1001B00001D100F035F8AFF2090EBAE80F0013F0E4
:1001C000010F18BFFB1A43F0010318477C380000E9
:1001D0009C380000103A24BF78C878C1FAD852077A
:1001E00024BF30C830C144BF04680C6070470000B1
:1001F0000023002400250026103A28BF78C1FBD830
:10020000520728BF30C148BF0B6070471FB502F0CE
:1002100086FD9DE8030000F0F3F81FBD10B510BD8A
:1002200000F05AF91146FFF7F1FF01F005FE00F06A
:1002300078F903B4FFF7F2FF03BC00F0A9F900005E
:100240000948804709480047FEE7FEE7FEE7FEE76A
:10025000FEE7FEE7FEE7FEE7FEE7FEE704480549A6
:10026000054A064B70470000211300089901000859
:1002700020020020201A0020200A0020200A00204E
:1002800070B5064600F0A0F8056806F10B0020F0F6
:100290000704B4429CBF002070BD2B466A68BAB107
:1002A0001068A04210D304F1080188423CBF506896
:1002B000586007D35168101941601168091B01602B
:1002C00058601460101D70BD13465268002AE7D1B3
:1002D0002146284600F080F80028DED170BD70B5B8
:1002E0000446051F00F070F80068002C14BF446835
:1002F00070BD002C18BFAC423CBF20466468F8D3E8
:1003000001680A18AA4218BF456003D12A68054649
:100310001144016028684119A1421CBF6C6070BD86
:100320006168696021680844286070BD40EA010383
:10033000024630B59B0710D14FF0013400E008C2EF
:1003400008C91D1B9D4315EAC41FF8D013F0FF0117
:1003500002F8011B0DD01B0AF8E711F8013B002B36
:1003600002F8013B05D011F8013B002B02F8013BDC
:10037000F3D130BD4FF0000200B5134694469646C7
:10038000203922BFA0E80C50A0E80C50B1F12001A8
:10039000BFF4F7AF090728BFA0E80C5048BF0CC056
:1003A0005DF804EB890028BF40F8042B08BF7047B4
:1003B00048BF20F8022B11F0804F18BF00F8012B26
:1003C000704770477047704700487047C40100206D
:1003D000704770477047704738B504460A4600209A
:1003E0006946AFF30080002808BF38BD0246009977
:1003F000204600F04FF8012038BD012000F064B81D
:10040000F8B5AFF30080054600200C46102000BF71
:100410000646A819A0420DD9324669460020AFF31E
:100420000080070008BF00F04FF80098A04218BFF6
:100430000546C419FFF7C8FF05600746F01D20F008
:1004400007004619284600F00AF8B44208BFF8BD74
:10045000A21B31463868BDE8F84000F01BB8002107
:100460000160C0E9011070471020704710B500F01E
:100470000DF8006810BD10B5044600F007F80460E0
:1004800010BD000000487047BC01002000487047C4
:10049000BC010020034640688C46002818BF8842F3
:1004A0003CBF03464068F8D318681844884207D018
:1004B0000CF1030020F00700001D411A521A0146FA
:1004C000081D0A60FFF70BBF10B500F039F8BDE852
:1004D000104000F02FB870477546FFF7D3FFAE46C7
:1004E00005006946534620F00700854618B020B540
:1004F000FFF7B4FEBDE820404FF000064FF00007C4
:100500004FF000084FF0000B21F00701AC46ACE8BB
:10051000C009ACE8C009ACE8C009ACE8C0098D4628
:10052000704710B50446AFF300802046BDE8104088
:10053000FFF77FBE002801D000F02AB87047000006
:1005400010B5012805D0002103A000F027F80120F4
:1005500010BD09A1F8E7000053494752544D454DDD
:100560003A204F7574206F662068656170206D6554
:100570006D6F7279000000003A2048656170206D4F
:10058000656D6F727920636F727275707465640047
:1005900001491820ABBEFEE72600020070B50546F3
:1005A0000C460A2000E06D1C00F011F835B12878E7
:1005B0000028F8D102E0641C00F009F814B120789A
:1005C0000028F8D1BDE870400A20AFF3008008B5DC
:1005D00069468DF800000320ABBE08BDFEE70000B1
:1005E0000A480168C1F3C06131B14FF00061816018
:1005F00007490120087070470168C1F34061002974
:10060000F9D04FF00071816000F005B8006402403D
:1006100014000020704772B6FEE708B5F0230021F1
:1006200000901A46084600F001F808BD2DE9FF5F6A
:100630008B460E989246010A01EB0020009987B282
:100640009946521AA3EB0B0012FB00F040004FF446
:100650008074B0FBF4F104FB1101411AB1FBF4F812
:10066000B0FBF4F104FB11066000FFF709FE05463C
:100670005FF0000025F81070401CA042FAD3A9F1E9
:100680000100C3B2AAF10100C2B25946009800F0BD
:1006900035FB002704E02146284600F05DFB7F1C67
:1006A0004745F8D31EB1B1B2284600F055FB04B05F
:1006B0002846BDE8F05FFFF712BE00002DE9F047C5
:1006C000C0F507702DED048B081A1C46914600B248
:1006D000DDF8308001F0C7FF9FED2B1B53EC112B91
:1006E00002F028F89FED2A1B53EC112B01F034FE89
:1006F00001F04CFD0546204601F0CCFF0E460446B5
:1007000046EC180B284602F099FA41EC100B00F069
:100710003BFE53EC182B51EC100B02F00BF841ECA4
:10072000100B00F095FE9FED1C9B51EC100B53EC51
:10073000192B01F05DFD01F067FF074646EC184BF1
:10074000284602F07BFA41EC100B00F0F1FE53EC6E
:10075000182B51EC100B01F0EDFF41EC100B00F0E9
:1007600077FE53EC192B51EC100B01F041FD01F019
:100770004BFFBDEC048B81B2B8B243464A46BDE89C
:10078000F04700F00DB80000182D4454FB2109403B
:1007900000000000008066400000000000005E4095
:1007A0002DE9FE4F07465000C0F1000B481C99464A
:1007B0000093C3B2B818C2F101081446401C0025CA
:1007C000C2B20E46381B4FF0010AC9B2C0B248E0AF
:1007D000B8F1000F09DB0BF102000FFA80FB641E79
:1007E00008EB0B0024B20FFA80F80AF102000FFAAE
:1007F00080FA08EB0A000FFA80F830196D1C411CD2
:100800002DB2CBB27919491CCAB20291C1B2781B80
:10081000CDE90090C0B2FFF709FF301B411CCBB2FD
:100820000299CDF80090CAB2C1B20198C0B2FFF7E8
:10083000FDFE7119481CC3B23819401CC2B20290A7
:10084000381BCDE90090C9B2C0B2FFF7EFFE711BB3
:10085000481CC3B20298CDF80090C2B20198C9B248
:10086000C0B2FFF7E3FEA542B2DBBDE8FE8F000099
:10087000FF4900B54FF4806088614102FD48816105
:1008800008218161EF2000F0C9FAEB2000F0C6FAE0
:10089000142000F0DBFAFE2000F0C0FAEF2000F098
:1008A000BDFAEB2000F0BAFA142000F0CFFA842051
:1008B00000F0B4FA402000F0C9FA852000F0AEFA4A
:1008C000FF2000F0C3FA862000F0A8FAFF2000F015
:1008D000BDFA872000F0A2FAFF2000F0B7FA8820C6
:1008E00000F09CFA0A2000F0B1FA892000F096FA94
:1008F000212000F0ABFA8A2000F090FA002000F0EE
:10090000A5FA8B2000F08AFA802000F09FFA8C2054
:1009100000F084FA012000F099FA8D2000F07EFAB0
:10092000012000F093FA8E2000F078FAFF2000F00A
:100930008DFA8F2000F072FAFF2000F087FAB620BF
:1009400000F06CFA002000F081FA002000F07EFA3E
:10095000362000F063FA282000F078FA3A2000F000
:100960005DFA052000F072FA902000F057FA082096
:1009700000F06CFA082000F069FA082000F066FA2E
:10098000082000F063FABD2000F048FA062000F0CD
:100990005DFABC2000F042FA002000F057FAFF2078
:1009A00000F03CFA602000F051FA012000F04EFA0D
:1009B000042000F04BFAC32000F030FA132000F0BE
:1009C00045FAC42000F02AFA132000F03FFAC920AB
:1009D00000F024FA222000F039FABE2000F01EFABE
:1009E000112000F033FAE12000F018FA102000F096
:1009F0002DFA0E2000F02AFADF2000F00FFA212055
:100A000000F024FA0C2000F021FA022000F01EFA77
:100A1000F02000F003FA452000F018FA092000F059
:100A200015FA082000F012FA082000F00FFA26202C
:100A300000F00CFA2A2000F009FAF12000F0EEF99B
:100A4000432000F003FA702000F000FA722000F05A
:100A5000FDF9362000F0FAF9372000F0F7F96F20A1
:100A600000F0F4F9F22000F0D9F9452000F0EEF999
:100A7000092000F0EBF9082000F0E8F9082000F068
:100A8000E5F9262000F0E2F92A2000F0DFF9F32052
:100A900000F0C4F9432000F0D9F9702000F0D6F935
:100AA000722000F0D3F9362000F0D0F9372000F0A2
:100AB000CDF96F2000F0CAF9ED2000F0AFF91B204E
:100AC00000F0C4F90B2000F0C1F9AE2000F0A6F947
:100AD000772000F0BBF9CD2000F0A0F9632000F0F2
:100AE000B5F9702000F09AF9072000F0AFF907205F
:100AF00000F0ACF9042000F0A9F90E2000F0A6F9EE
:100B00000F2000F0A3F9092000F0A0F9072000F061
:100B10009DF9082000F09AF9032000F097F9E820E9
:100B200000F07CF9342000F091F9622000F076F9B1
:100B3000182000F08BF90D2000F088F9712000F0EA
:100B400085F9ED2000F082F9702000F07FF9702027
:100B500000F07CF9182000F079F90F2000F076F908
:100B6000712000F073F9EF2000F070F9702000F0B0
:100B70006DF9702000F06AF9632000F04FF9182039
:100B800000F064F9112000F061F9712000F05EF9C5
:100B9000F12000F05BF9702000F058F9702000F0AF
:100BA00055F9182000F052F9132000F04FF9712088
:100BB00000F04CF9F32000F049F9702000F046F9FC
:100BC000702000F043F9642000F028F9282000F09C
:100BD0003DF9292000F03AF9F12000F037F9012021
:100BE00000F034F9F12000F031F9002000F02EF986
:100BF000072000F02BF9662000F010F93C2000F0EF
:100C000025F9002000F022F9CD2000F01FF967201F
:100C100000F01CF9452000F019F9452000F016F904
:100C2000102000F013F9002000F010F9002000F06F
:100C30000DF9002000F00AF9672000F0EFF800201D
:100C400000F004F93C2000F001F9002000F0FEF86B
:100C5000002000F0FBF8002000F0F8F8012000F080
:100C6000F5F8542000F0F2F8102000F0EFF803E05F
:100C70000004024000000240322000F0E7F8982013
:100C800000F0E4F8742000F0C9F8102000F0DEF85D
:100C9000852000F0DBF8802000F0D8F8002000F07C
:100CA000D5F8002000F0D2F84E2000F0CFF8002058
:100CB00000F0CCF8982000F0B1F83E2000F0C6F823
:100CC000072000F0C3F8352000F0A8F8212000F03C
:100CD000A5F8112000F0A2F829205DF804EB00F03F
:100CE0009DB8000001494880704700000C000020BA
:100CF00001494860704700000C000020F0B5044630
:100D00001D4616460F462A2000F088F8002000F005
:100D10009DF8204600F09AF8002000F097F8304641
:100D200000F094F82B2000F079F8002000F08EF805
:100D3000384600F08BF8002000F088F8284600F0D4
:100D400085F8BDE8F0402C2000F068B80149088023
:100D5000704700000C0000202DE9F047294F824623
:100D60004FF080600E464FF48069B8612649042038
:100D70008861264D4FF0000885F80080244C03213F
:100D8000204600F093F82349201DCA781258CB78EA
:100D90006FF30F0232431A50C8782058CA7840F0D7
:100DA0001000A0507804A0608010A060CB781A4892
:100DB0005246E358164E03F0C0030C36402BCB7856
:100DC000A6F1040C0BD043F80C20CA789051CA78D5
:100DD0002046A258C97842F00102625005E09A51BB
:100DE000CA7842F80C00F2E700BF29780029FBD04E
:100DF000032100F05BF885F80080C7F81890BDE883
:100E0000F0870000000402400000024014000020AF
:100E100000640240123900080C30014000B502465F
:100E2000084B4FF4806001049961074B04200104D2
:100E30009961104600F0F0F902494FF48060886132
:100E400000BD0000000402400000024000B5024660
:100E5000074B4FF4806001049961064904208861C2
:100E6000104600F0D9F902494FF48060886100BD56
:100E70000004024000000240FEE70000044908B5FB
:100E80000A6802430A6009680140009108BD000039
:100E900030380240044908B50A6802430A6009680C
:100EA0000140009108BD000044380240034A515CF3
:100EB000425822F0010242507047000012390008E7
:100EC000F0B50A680F2692FAA2F2B2FA82F303246E
:100ED0008AE001279F4015EA07027DD04D68012D69
:100EE00001D0022D1BD18D68876892FAA2FCBCFA52
:100EF0008CFC4FEA4C0C04FA0CFC27EA0C0792FA23
:100F0000A2FCBCFA8CFC4FEA4C0C05FA0CF52F4302
:100F10008760CD684768554397432F4347600F6903
:100F2000D0F80CC092FAA2F5B5FA85F54FEA450E55
:100F300004FA0EF52CEA050C92FAA2F5B5FA85F53D
:100F40006D00AF404CEA070CC0F80CC04D68022D94
:100F500033D192FAA2F5B5FA85F5082D15D2D1F85C
:100F600014C0056A92FAA2F7B7FA87F7BF0006FA2B
:100F700007F7BD4392FAA2F7B7FA87F7BF000CFA5A
:100F800007FC45EA0C05056217E0D1F814E0476A52
:100F9000150A95FAA5FCBCFA8CFC4FEA8C0C06FAF3
:100FA0000CFC95FAA5F5B5FA85F5AD0027EA0C0716
:100FB0000EFA05FE47EA0E0747624D68076892FA87
:100FC000A2FCBCFA8CFC4FEA4C0C04FA0CFE27EA9B
:100FD0000E0792FAA2F200E005E0B2FA82F25200A5
:100FE00095402F4307605B1C0A681546DA407FF482
:100FF00070AF0020F0BD4FF47A71B0FBF1F14FF00B
:10100000E020491E41610021816105210161704795
:1010100010B503680122C3F380132BBBD1E9002371
:101020001A43D1E9023423431A430B691A434B692B
:101030001A438B691A43CB691A430B6A1A43036834
:101040004FF6BF74A3431A43026042684B6922F013
:10105000040242EA134242600A6AB2F5005F02D11A
:10106000898C89B201610022C16921F40061C161EA
:10107000104610BD014908607047000018000020AC
:10108000F0B587B018216846FFF774F90120FFF723
:10109000F5FE0220FFF7F2FE0E484FF44021816179
:1010A0000D4D07154102A9610C2100910126002474
:1010B000CDE90164039469460494FFF701FF0097AA
:1010C000CDE901640394694628460494FFF7F8FECD
:1010D00007B0F0BD000002400004024010B590B01F
:1010E00028216846FFF746F918210AA8FFF742F9B8
:1010F0004FF48050FFF7CEFE0120FFF7BFFEA02087
:101100000A9002200B9003200024CDE90C04052056
:10111000CDE90E400AA92E48FFF7D2FE2E482D49F0
:10112000C2788A58C37822F0606242F0C062CA5026
:10113000C2788A58C37822F0C00242F04002CA50F6
:10114000C2788A58C37822F4403242F48032CA50BE
:10115000C2788A58C37822F49072CA50C2788A58EA
:10116000C37822F40072CA50C2788A58C37842F415
:101170008062CA50C2788A58C37822F4C052CA50DA
:10118000C2788A58C37822F4C042CA501149C27842
:1011900014315258C07822F0040242504FF4827049
:1011A000CDE900404815CDE9044003940A20CDE97B
:1011B0000840029406940794084C69462046FFF7BD
:1011C00027FF606820F01000606010B010BD0000C4
:1011D00000000240006402401A390008003001405B
:1011E000FEE7FEE730B500F00703C3F10704042C67
:1011F00000D90424181D072801D2002300E0DB1EBB
:10120000012505FA04F0401E084098409D406D1EDF
:101210001540284330BD704700BF09498968C1F3B4
:1012200040010029F9D00649087300BF04498968C4
:1012300001F001010029F9D00149097B7047000044
:101240000030014070477047304810B5016821F008
:10125000070141F003010160016801F00701032962
:10126000FAD12B48016841F44041016029480168E6
:1012700021F0F80141F080010160016841F00101B5
:1012800001600168C1F340010029FAD0214941F60B
:101290000812091D0B68204C23401A430A600A6893
:1012A00022F440320A60016841F0807101600168F7
:1012B000C1F340610029FAD016480830016821F0D6
:1012C000F0010160016821F4E05141F480510160B6
:1012D000016821F460410160016821F0030141F0DF
:1012E00002010160016801F00C010829FAD10B4CE0
:1012F0002046FFF780FE2046FFF7BCFE05488C30F5
:10130000016821F08071016010BD0000003C0240C6
:1013100000700040003802400080BFFF00E1F5058A
:101320000248016841F470010160704788ED00E0F7
:10133000FEE703B401984100009850EAC12018BFAD
:1013400004204A0D18BF40F0010040F2FF72B2EBDA
:10135000515F08BF40F00200012808BF052002B01D
:1013600070470907090E002804DB00F1E02080F82F
:101370000014704700F00F0000F1E02080F8141D09
:10138000704700000000000010B52F499FED2C1B96
:101390002DED020B84B0059820F000408842D8BFA4
:1013A0009DED040B2DDD2949884209D1049840B9EF
:1013B0004FF00100FFF75FF800F012FD06B010BD1E
:1013C00005DB9DED040B00F0FFFC06B010BD684688
:1013D0009DED040B00F010F910F0030004BF9DED2B
:1013E000021B9DED000B0CD001280ED09DED021BC1
:1013F0009DED000B022817D0012000F04DFC06B037
:1014000010BD00F015FB06B010BD9DED021B9DED5B
:10141000000B012000F040FC51EC100B00F0AAFE84
:1014200006B041EC100B10BD00F002FB51EC100BAC
:1014300000F0A0FE06B041EC100B10BD0000000053
:101440000000000000000000FB21E93F0000F07FE9
:1014500010B52DED020B2DED088B84B09DED0C0B1E
:1014600051EC100B01F09AFA41EC180B9DED0C0BAE
:1014700053EC182B51EC100B01F0F6FA41EC190B60
:101480000D989FED290B10F0004F53EC102B51ECF1
:10149000190B9FED21AB9FED22BB0ED001F00EF991
:1014A0000ED953EC1B2B51EC190B01F041FA1CD255
:1014B00014E000BF41EC180B17E001F0FFF806D272
:1014C00053EC1A2B51EC180B01F0CEFAF2E753EC67
:1014D0001B2B51EC190B01F02BFA06D853EC1A2BED
:1014E00051EC180B00F084FEE4E78DED028B9DEDCE
:1014F0000C0B18EE901A10EE900A8DED000B61F3B4
:101500001E0003909DED020B04B0BDEC088B02B0F1
:1015100010BD000000000000000000000000F03FCF
:10152000000000000000E03F000000000000E0BFFD
:1015300010B52F499FED2C1B2DED020B84B00598A3
:1015400020F000408842DCBF00209DED040B32DD1E
:101550002849884209D1049840B94FF00100FEF7AC
:101560008AFF00F03DFC06B010BD05DB9DED040BCD
:1015700000F02AFC06B010BD68469DED040B00F09B
:101580003BF810F0030011D0012818D09DED021B8C
:101590009DED000B02281AD000F04AFA51EC100B16
:1015A00000F0E8FD06B041EC100B10BD9DED021BF4
:1015B0009DED000B012000F06FFB06B010BD9DED0E
:1015C000021B9DED000B00F033FA06B010BD0120A8
:1015D00000F062FB51EC100B00F0CCFD06B041ECCA
:1015E000100B10BD00000000000000000000000013
:1015F000FB21E93F0000F07F2DE9F14F04462DED7E
:10160000020B2DED088B8AB09FEDE70B80ED020BEE
:10161000139EE74826F0004585420ADC9DED120B3B
:10162000002084ED000B0AB0BDEC088B03B0BDE8D0
:10163000F08FE0489FEDE0AB9FEDE1BBA84247DDB6
:10164000E14F9FEDE39B9FEDE48B9DED120B53EC7F
:101650001A2B51EC100B002E1CDD01F005FA41ECA9
:10166000100BBD4208D053EC1B2B51EC100B01F0BA
:10167000FBF9C4E900010BE053EC192B51EC100B02
:1016800001F0F2F953EC182B01F0EEF9C4E9000176
:101690000120C8E700F0ACFD41EC100BBD4208D0C2
:1016A00053EC1B2B51EC100B00F0A2FDC4E9000120
:1016B0000BE053EC192B51EC100B00F099FD53EC9F
:1016C000182B00F095FDC4E900014FF0FF30AAE7A8
:1016D000C348A84279DB9DED120B51EC100B00F0D2
:1016E0009FFB41EC180B9FEDC00B53EC102B01F04E
:1016F00021F89FEDBF1B53EC112B00F079FD00F09A
:1017000083FF074600F0AFFF41EC190B53EC1A2B97
:1017100001F010F853EC182B01F09AF941EC180B7A
:1017200053EC1B2B51EC190B01F004F8DFF8C8A2A5
:1017300041EC100B4FEA15580125FA4453EC102BDD
:1017400051EC180B01F090F9032DC4E900013DD0D4
:10175000C1F30A5005EB4511A8EB00001139814295
:1017600034DA0AEB051BB0EE48AA9BED000BF0EE55
:1017700068AA53EC102B51EC190B00F0DBFF41EC85
:101780001B0B51EC1A0B53EC1B2B01F06DF941ECC8
:10179000180B51EC1A0B53EC182B01F065F953ECB4
:1017A0001B2B01F061F99BED020B41EC1A0B53EC82
:1017B000102B51EC190B00F0BDFF53EC1A2B01F06C
:1017C00053F941EC100B6D1CB8E70EE0002EA8BFDA
:1017D0003846BFF628AF94ED000B51EC100B00F02B
:1017E000C9FCC4E9000178421DE7C6F3130040F4C8
:1017F000801EC6F30A50A0F2F530471100F01F0515
:10180000C5F12000DDF848B0089000200690079050
:101810000520EC467949002D07EB0002794408BF0A
:1018200051F8221009D051F8223001EB8201AB406F
:101830004A68089922FA01F11943A1FB0E26A1FB7F
:101840000B131A449A4234BF0123002303EB06080A
:101850000CEB8003D3E901A60E448E4234BF012174
:10186000002192448A4411B1924502D903E0924585
:1018700001D2012100E00021C3E901A641444CF856
:101880002010011EA0F10100C4DC029800F10050FC
:10189000850F0298DDE903678000DDF8148000F011
:1018A000E2FE41EC1A0B304600F0F4FE9FED541BB3
:1018B00053EC112B00F03EFF41EC1B0B384600F0BF
:1018C000E9FE9FED511B53EC112B00F033FF41EC6F
:1018D000180B404600F0DEFE9FED4D1B53EC112B24
:1018E00000F028FF41EC190B51EC180B53EC192BAD
:1018F00000F07EFC53EC1B2B00F07AFC53EC1A2B0F
:1019000000F076FCCDE90801002008909DED080B61
:1019100053EC1A2B51EC100B01F0A6F853EC1B2BD7
:1019200001F0A2F853EC182B01F09EF853EC192BA0
:1019300001F08EF89FED381B53EC112B00F0FAFEEE
:101940009FED370B41EC180B53EC102B9DED080B62
:1019500051EC100B00F0EEFE53EC182B00F048FC9D
:101960009FED310B41EC180B53EC102B9DED080B48
:1019700051EC100B00F0DEFE53EC182B00F038FC9D
:1019800041EC100B139810F0004F06D06D4251EC53
:10199000100B00F0EFFB41EC100B284684ED000B20
:1019A00041E6000000000000000000000000000010
:1019B000FB21E93F7CD9024000004054FB21F93F64
:1019C0003163621A61B4D03DFB21F93F0000000091
:1019D0000000601A61B4D03D7370032E8A19A33BD6
:1019E000FB2139410000000083C8C96D305FE43F2E
:1019F000000000000000E03F1A2200006821000003
:101A0000000000000000103E000000000000103C3C
:101A1000000000000000103A182D4454FB21F93D4D
:101A20003326A611460B113C00000054FB21F93D62
:101A300010B52DED040B2DED088B82B0B0EE419A60
:101A4000F0EE619A0B9820F000449FED4BABB4F19F
:101A5000795F11DA9DED0A0B51EC100B00F0D4FD0B
:101A6000002801BFB0EE4A0AF0EE6A0A02B0BDECEF
:101A7000088B04BF04B010BD9DED0A0B53EC102B76
:101A800051EC100B00F056FE41EC180B3C480621BF
:101A9000B0EE480AF0EE680A784400F081F853ECA2
:101AA000182B51EC100B00F045FE9DED0A0B41EC9C
:101AB0001B0B53EC192B51EC100B00F03BFE41ECCF
:101AC000190B53EC1B2B51EC180B00F033FE53ECAD
:101AD000192B00F0C9FF9FED2C0B41EC190B53ECB7
:101AE000102B51EC180B00F025FE41EC100B284890
:101AF000844210DA53EC192B51EC100B00F0B4FFB8
:101B000053EC1A2B00F0A4FF41EC100B02B0BDEC1B
:101B1000088B04B010BD1F48A042BCBF9FED1E1B28
:101B20008DED001B06DBA4F5001001900020009055
:101B30009DED001B51EC100B53EC112B00F094FFAA
:101B40009DED000B41EC180B53EC102B51EC1A0BD4
:101B500000F08AFF41EC1A0B53EC192B51EC180BD7
:101B600000F082FF53EC1A2B00F072FF41EC100BD7
:101B7000CCE7000000000000000000000000F03F83
:101B80008C1E000000000000000000000000E03F8C
:101B90003333D33F0000E93F000000000000D23F94
:101BA00070B504462DED028B4D1E00EBC500B0EE66
:101BB000408AF0EE608A90ED000B35F0060017D0F9
:101BC00053EC182B51EC100B00F0B4FD41EC100B52
:101BD0006D1E04EBC50090ED001B51EC100B53EC97
:101BE000112B00F005FB41EC100B35F00600E7D19E
:101BF000022D36D0042D1CD0062D1CBFBDEC028B4F
:101C000070BD53EC182B51EC100B00F093FD94EDCC
:101C10000A1B53EC112B00F0EBFA53EC182B00F0DD
:101C200089FD94ED081B53EC112B00F0E1FA41EC17
:101C3000100B53EC182B51EC100B00F07BFD94EDC6
:101C4000061B53EC112B00F0D3FA53EC182B00F0C9
:101C500071FD94ED040B53EC102B00F0C9FA41EC2C
:101C6000100B53EC182B51EC100B00F063FD94EDAE
:101C7000021B53EC112B00F0BBFA53EC182B00F0B5
:101C800059FD94ED001B53EC112B00F0B1FABDECA3
:101C9000028B41EC100B70BD31B504462DED040BE9
:101CA0002DED0A8BB0EE41BAF0EE61BA0B989DEDC6
:101CB0000A0B20F00040B0F1795F0DDA51EC100B07
:101CC000FFF737FB042808BF00F09AF89DED0A0BD8
:101CD000BDEC0A8B05B030BD53EC102B51EC100B52
:101CE00000F028FD41EC180B9DED0A0B53EC182B6E
:101CF00051EC100B00F01EFD41EC190B2C48B0EE1E
:101D0000480AF0EE680A05217844FFF749FF9FED85
:101D10002ACBB0EE40AAF0EE60AA9CB353EC1C2B89
:101D200051EC190B00F006FD41EC1C0B53EC1A2B87
:101D300051EC190B00F0FEFC9FED210B41EC190B4F
:101D400053EC102B51EC1B0B00F0F4FC53EC192B53
:101D500000F08AFE53EC182B00F0ECFC53EC1B2B2C
:101D600000F082FE53EC1C2B00F07EFE9DED0A1B62
:101D700053EC112B00F06CFEBDEC0A8B05B041EC6E
:101D8000100B30BDFFE753EC1A2B51EC180B00F091
:101D9000D1FC53EC1C2B00F02BFA53EC192B00F068
:101DA000C9FC9DED0A1B53EC112B00F021FAE3E76F
:101DB000141D000000000000495555555555C5BF7C
:101DC000000000000000E03F10B553EC102B51EC78
:101DD000100B00F00DFA41EC100B10BD00000000DC
:101DE0009FED050B10B553EC102B51EC100B00F0D0
:101DF000B3FA41EC100B10BD000000000000000021
:101E00009FED050B10B553EC102B51EC100B00F0AF
:101E100091FC41EC100B10BD000000000000001010
:101E200082B0CDE9000121F0004001909DED000B52
:101E300002B051EC100B70472DED028B0524AE4E15
:101E400086B0012704EB840000EBC40006EB80059C
:101E5000AAA12846FEF76AFA601C05F8320F641E34
:101E60006F70EFD5002086F83300A6A1A248FEF7D8
:101E70005DFAA148A7A13430FEF758FA9E48A9A1FF
:101E80006830FEF753FA9C48AAA19C30FEF74EFA40
:101E90009948ACA1D030FEF749FA4FF48040FEF7E4
:101EA000F9FFAC48016841F0805101600068AA4C1C
:101EB00000F08050009020684FF6FF010840A749CD
:101EC00040F440700843206020680022C0F30220E4
:101ED0000F21FFF787F901466017FFF742FAFFF776
:101EE000B3F9FFF7CDF84FF48000FEF7C7FF206885
:101EF0000022C0F302201146FFF774F901463B208F
:101F0000FFF72FFA96484FF00064C0F80041FFF742
:101F1000E5F895499348CA788258CB7822F00102B7
:101F2000C2508460A2108260CA788258CB7842F096
:101F30001002C250CA788258C97842F00402425056
:101F40008A48416841F002014160016841F0400166
:101F50000160FEF78DFC4FF6FF742046FEF75DFB37
:101F60008348FEF7C5FE2046FEF7BCFE0020FEF7C4
:101F7000EDFE4FF0000A4FF01F0B4FF4A570D14655
:101F8000D04657465E46F025B7EE008A0190002401
:101F900057E000BFB4F5B47F00D1002400EE104A32
:101FA000681E5F23F8EE400A00EE100AB8EEC01A71
:101FB00080EE810A00EE90BAF8EE600A38EE401A20
:101FC00061EE201A00EE908AF8EE600A40EE201AC8
:101FD000FCEEE10A10EE900A00EE90AA8DF80800DF
:101FE000C002F8EE600A61EE201A00EE907AF8EE78
:101FF000600A40EE201AFCEEE10A10EE901A00EEA4
:10200000909AC9B2F8EE600A40EA41108DF80C10BF
:1020100021B221EE201A00EE906AF8EE600A00EE7E
:10202000201ABCEEC10A10EE102AD2B2104380B2C0
:102030008DF81020009019220198FEF73FFB641CD8
:10204000A4B2AC42A6D12C0054D0681E05900CB9A5
:102050004FF4B47400EE104A05985F23F8EEC00AFE
:1020600000EE100A1922B8EEC01A80EE810A01EEC5
:1020700010BAB8EE411A78EE400A60EE811A01EE0D
:10208000108AB8EE411A40EE011ABCEEE11A11EEC8
:10209000100A01EE10AA8DF80800B8EE411A60EEA1
:1020A000811A01EE107AB8EE411A40EE011ABCEE28
:1020B000E11A11EE100A01EE109A8DF80C00B8EE3C
:1020C000411A20EE811A00EE906AF8EE600A00EEE6
:1020D000201ABCEEC10A10EE100A8DF810004FF65F
:1020E000FF700090601C01B20198FEF7E7FA641ED1
:1020F000ADD14CE7FEE700001C00002046696C658E
:10210000200000005475726E206F6E206C69676845
:10211000740000005475726E206F6666206C6967EB
:10212000687400005475726E206F6E20686561746B
:10213000657200005475726E206F66662068656176
:10214000746572004F70656E207468652066696CF6
:1021500065000000403802400CED00E00000FA0588
:1021600004E000E0006402401A3900080030014039
:102170000000002081F00041704780F0004070476F
:1021800021F00041704720F00040704721F00042EC
:10219000A2F16052B2F5801F01F0004328BFD2F1D6
:1021A0007F6C0BD95FEA001C43EAC20242EB50701D
:1021B00018BF704728BF20F001007047B2F5801F9C
:1021C000BCBF184670474FEA410C1CF5001F02D2F5
:1021D000084600F0A9BD70B500F056FB000000896C
:1021E000FFF7F6BF4FF00040A0F5800070470000F9
:1021F00010B591EA030F48BF83F0004300F13C841F
:10220000841A71EB030C05D2121943EB0C03001B6B
:1022100061EB0C01DFF824E14FEA1154A4EB135CED
:102220001EEA430F18BF9EEA445F73D023EA0E03F1
:10223000DCF1200E21EA045143F4801332D322FA58
:102240000CFE10EB0E0023FA0CFE41EB0E01CCF15C
:10225000200E03FA0EFE10EB0E0051F10001B1F555
:10226000801FCCF1200E32D201EB045112FA0EF293
:10227000BDE8104058BF7047401C38BF5FEA4202BB
:1022800018BF7047002814BF20F0010041F1000181
:102290004FEA410313F5001F38BF7047A1F1C04159
:1022A00000F040BB012A43EB0302ACF1200CDCF14F
:1022B0001F0E32BF4FF0000E23FA0CF310EB030099
:1022C00041EB0451B4EB115FD0D0A1EB045101F507
:1022D000801149085FEA300001EB04510ED350F140
:1022E000000038BF12FA0EFE08D1BDE81040C9E761
:1022F000401C38BF5FEA4202CAD1C3E7BDE81040C4
:102300004FEA410313F5001F38BF7047A1F1C041E8
:1023100000F008BB9EEA445F08D011EA5E0FBDE8FA
:10232000104004BF01F0004100207047BDE810409C
:1023300070B500F0A9FA00BF64FBBE3E0000E0FFEC
:10234000491058BFC1F140415B1058BFC3F1404331
:102350008B42EFF3008070472DE9C04130B4DFF8C5
:10236000A0C23CEA111418BF3CEA131400F0EC8040
:1023700081EA03051CEA111444EAD57418BF1CEA6B
:10238000131500F0C780A4EB05044FF0004545EAA3
:10239000C12145EAC32341EA505143EA525304F1B3
:1023A0007F74994204F500344FEAC0204FEAC222FC
:1023B00008BF904200F09C804FEA13650FF2401670
:1023C000765D4FEA134506FB05F7C7F1807706FBFC
:1023D00007F74FEAD737A7FB03687642C8F580387E
:1023E000A7FB06CE38BFA8F1010807FB08E64FF0AF
:1023F000000EA6FB028CE6FB03CEDCF1000CCEF156
:10240000004E38BFAEF1010EA6FB0C584FF000078E
:102410004FF00005E6FB0E87A1FB08C6A0FB07CE28
:1024200016EB0E0645F10005E1FB076515F1E04EE0
:102430007EBFA4F580345FEA46066D4116F1800741
:1024400045F100054FEA17274FEA066647EA056798
:10245000A6F1DE46B6F1805F4FEA15251FD9384652
:1024600024F0010C05EBC471BCF1FE6F01EB0C1103
:1024700002D8F0BCBDE8008124425CBF01F5801E9B
:102480009EEAC47F02D4F0BCBDE80081244238D467
:10249000F0BCA1F1C041BDE8004100F043BA4FEAF1
:1024A000D22242EA43524FEAD323A7FB02864FEAE5
:1024B000D02040EA415007FB03661EEA0E0F4FEAA8
:1024C000D12105FB026658BFA6EB0056B6EB0056BD
:1024D0004FEA520E4EEAC37E18EB0E0E56EB530E29
:1024E000BDD518EB02085E417F1C55F10005B6E72B
:1024F0004FF480154FF000074FF000064FF0000832
:10250000ADE7F0BC4FF0000001F1C04101F0004127
:10251000BDE8008111EA0C1F0CEA131500D00CE095
:1025200013EA0C1F00F025804FF00000F0BC81EA98
:10253000030101F00041BDE80081F0BCBDE80041AD
:1025400081EA030100F0EEB9F0BCBDE8004170B5CE
:1025500000F09AF9097EFC3E00F007B881EA030119
:102560004FF0000001F00041704781EA030100F0E4
:10257000D9B9F0BCBDE800414FF0000021497047D7
:10258000FFFDFBF9F7F5F4F2F0EEEDEBE9E8E6E438
:10259000E3E1E0DEDDDBDAD8D7D5D4D3D1D0CFCDBF
:1025A000CCCBCAC8C7C6C5C4C2C1C0BFBEBDBCBBF8
:1025B000BAB9B8B7B6B5B4B3B2B1B0AFAEADACABF3
:1025C000AAA9A8A8A7A6A5A4A3A3A2A1A09F9F9ECD
:1025D0009D9C9C9B9A99999897979695959493937F
:1025E000929191908F8F8E8E8D8C8C8B8B8A898916
:1025F0008888878786858584848383828281818099
:102600000000FF070000F87F4FEA41034FEA5353F1
:10261000A3F58063D3F11E03C8BFD3F1210C0CDDF9
:102620004FF0004242EAC12242EA505232FA03FC21
:102630008CEAE17CACEBE1707047102BC4BF00204A
:10264000704703F5787CBCF1FF3F04D06FF0004287
:1026500082EA2100704770B500F016F94992248093
:1026600000207047F2E710F0004248BF4042B0FA45
:1026700080F310FA03F10AD0C3F11D0303F5806360
:102680004FEA415002EB035202EBD12170474FF069
:1026900000007047B0FA80F310FA03F10AD0C3F1DA
:1026A0001D0303F580634FEA41504FEA035202EBEA
:1026B000D12170474FF000007047000051EA030C31
:1026C00017D41CF5801F58BFBCF5801F00F1068091
:1026D000994218BF704708BF9042704707D711F55D
:1026E000801F58BF13F5801F19D499427047894243
:1026F00070471CF5801F08D5BCF5801FF7D58B42AD
:1027000018BF704708BF824270474FF4001C1CEB93
:10271000410F38BF1CEB430F01D28B42704770B59D
:1027200000F0B2F8922449004FF000514FF080536E
:10273000FFF706BEDFF848C170B51CEA111E1EBFC8
:102740001CEA13159EEA0C0F95EA0C0F00F06F803F
:1027500081EA030423EA4C134EEAD47E21EA4C11A9
:1027600041F4801143F48013AE44A1FB024CA0FB62
:102770000365AEF17F7E361955EB0C05A1FB034CCA
:102780004CF10003A0FB021C16EB0C06654153F153
:102790000003094218BF46F0010613F4007F0BD175
:1027A0004FEA03314FEA0530340341EA155140EA5C
:1027B00016506FF003020AE04FEAC3214FEAC5202A
:1027C000F40241EA555140EA56506FF0020202EB22
:1027D0002E4201EB025585EACE710AD05FEA440C25
:1027E00018BF24F0004450F1000041F1000120EA3C
:1027F000D47040F2FE7C624500D270BDA84214BF86
:102800004FF080444FF04044002E08BF0024BEF13A
:10281000806FA8BFA1F1C041BDE8704080F2828006
:102820004FF0000001F1C04101F0004170479EEA05
:102830000C0F0CEA131518BF95EA0C0F06D04FF0D9
:10284000000081EA030E0EF0004170BD00F01CF89C
:102850008900013E00F007B800F009B84FEA430CC8
:102860005FEA5C5C08D081EA030100F05BB84FEAE4
:10287000410C5FEA5C5CF6D14FF000000149704703
:102880000000FF070000F87F0EF1020E2EF0030E8D
:102890005EF8046B364205D4012A43EB030515F5B7
:1028A000001F12D8012841EB010C1CF5001F0CD8A9
:1028B0000ED14FEAD17C15F5001F0CEB4C0C0CF13E
:1028C000020C08BF4CEBD37C04E04FF0080C01E095
:1028D0004FEAD37C0CEB4C0526FA05F606F007060A
:1028E000B6F1040C06D20EEB860CBDE870404CF03D
:1028F000010C6047DFE80CF0090B02024FF00041C9
:102900004FF00000A1F5002170BD194610460128C6
:1029100051EB010418BFD4F5001484BF002001F06E
:10292000004170BD0808A0F500114FEA3101704761
:1029300053EA010C17D41CF5801F58BFBCF5801F4B
:1029400000F106808B4218BF704708BF8242704773
:1029500007D713F5801F58BF11F5801F19D48B427C
:1029600070479B4270471CF5801F08D5BCF5801F3F
:10297000F7D5994218BF704708BF904270474FF48F
:10298000001C1CEB430F38BF1CEB410F01D29942D6
:1029900070470FB40CBC03BCFFF7C1BE5FEA410C2B
:1029A0005FEA5C5CACF580635B1C39D4D3F1340224
:1029B00040F34580B2F1200314DA4FF0010C0CFA19
:1029C00002FCACF101030340B3EB5C0220EA03001C
:1029D00008BF10EA0C0F98BF704710EB0C0041F1D4
:1029E000000170470AD0C3F1200201FA02FC01285D
:1029F00021FA03F101FA03F14CF100004FF0010C50
:102A00000CFA03FCACF10103B0F1004F21EA030121
:102A100008BF11EA0C0F4FF0000088BF61447047F7
:102A2000B3F1FF3F28BF50EAC12C01F000414FF045
:102A3000000084BF41F07C5141F470017047B3F550
:102A4000806FB8BF704770B5FFF71EFF40DBB6BEA2
:102A500091EA030F10B581F000413FF5D1AB83F04F
:102A6000004300F009B8000010B591EA030F48BF19
:102A700083F000433FF5C4AB841A71EB030C07D21B
:102A800012198CF0004C43EB0C03001B61EB0C01A2
:102A9000DFF8A4E14FEA1154A4EB135C1EEA430FE4
:102AA00018BF9EEA445F00F0B08023EA6E035242F2
:102AB00021EA0451C3EB6E0338BF5B1EDCF1200E2C
:102AC00025D322FA0CFE10EB0E0043FA0CFE41EB6C
:102AD0000E01CCF1200E03FA0EFE10EB0E0051F1A8
:102AE0000001CCF1200E29D412FA0EF201EB0451B0
:102AF000BDE8104058BF7047401C1CBFB2F1004FEA
:102B0000704700280CBF491C20F00100704712EBF1
:102B1000020E43EB030218BF4FF0010E4EEA4202D1
:102B2000ACF1200CDCF11E0E54D943FA0CFE10EB74
:102B30000E0051F1FF31CCF11E0ED5D50EF1010E74
:102B400012FA0EFE404141EB010101EB445C5FEAE9
:102B50005C5C10D910EBDE7001EB045138BFBEF1A4
:102B6000004FBDE8104018BF704700280CBF491C3B
:102B700020F00100704730D24FEAD42C11F500113B
:102B800024F400641BD0B1FA81F20B3AA41AA41EFB
:102B9000D2F12003914030FA03F31943904001EB46
:102BA000CC71002C01EB0451BDE81040A8BF704768
:102BB00001F1C0414FF0000001F000417047B0FA50
:102BC00080F310FA03F100D110BDE41A173C480558
:102BD000C90AE4E701EB045110BD491001EB0451AF
:102BE000BDE810404FEA300002E04FF000017047AE
:102BF0004A0008BF0042F8D0B2F5001F28BF704756
:102C000001F000414FF0000070479EEA445F07D09A
:102C100011EA5E0FBDE8104004BF0021002070479C
:102C2000BDE8104070B5FFF72FFE00BF40DFF63E55
:102C300083F00041104670470000E0FF43004FEA78
:102C4000D30C4FEA3C0C43401FBF40070CF16051CE
:102C500013F0FE4F70471CF0006F03D100200CF002
:102C6000004170470CF0004343EA507010B540EA51
:102C7000CC0000F00EF800BF000000924FEA000107
:102C8000FFF750BE4FF000414FF00000A1F50021CA
:102C900070470EF1020E2EF0030E5EF8044B244234
:102CA00004D44FEA4102B2F17F4F11D84FEA4003FA
:102CB000B3F17F4F0CD80ED14FEAD07CB2F17F4FE9
:102CC0000CEB4C0C0CF1020C08BF4CEBD17C04E07B
:102CD0004FF0080C01E04FEAD17C0CEB4C0324FAD6
:102CE00003F404F00704B4F1040C06D20EEB840CD8
:102CF000BDE810404CF0010C6047DFE80CF007081D
:102D000002024FF00040A0F5800010BD08464200CE
:102D100018BFD2F1807288BF00F0004010BD4FF0A4
:102D20004070E1EE100A7047FF2141EAD050C00523
:102D300070470000000000000000000000000000DC
:102D40000000000000000000000000000000000083
:102D5000000000000C000C000C000C000C000C002B
:102D60000C000C0000000C0000000000000000003F
:102D70000000000000001DC01DC008800880088001
:102D80000000000000000000000000000000000043
:102D9000000000000D800D800D800D803FC01B00E5
:102DA0003FC01B001B001B001B00000000000000B8
:102DB000000004001F803180318038001E000F00A9
:102DC0000380318031803F000400040000000000D7
:102DD0000000000018002400240018C007801E0016
:102DE000318002400240018000000000000000002D
:102DF0000000000000000F001800180018000C0070
:102E00001D80370033001D8000000000000000001E
:102E1000000000000000070007000200020002009E
:102E200000000000000000000000000000000000A2
:102E3000000000000300030006000E000C000C0060
:102E40000C000C000E000600030003000000000050
:102E500000000000180018000C0006000600060024
:102E60000600060006000C001C0018000000000010
:102E700000000000060006003FC03FC00F001F809A
:102E800019800000000000000000000000000000A9
:102E900000000000000000000400040004003F8067
:102EA0000400040004000000000000000000000016
:102EB0000000000000000000000000000000000012
:102EC00000000000060004000C00080008000000DC
:102ED00000000000000000000000000000003F8033
:102EE00000000000000000000000000000000000E2
:102EF00000000000000000000000000000000000D2
:102F0000000000000C000C000000000000000000A9
:102F1000000000C000C00180018003000300060023
:102F20000C000C00180018003000300000000000F9
:102F3000000000000E001B003180318031803180A4
:102F4000318031801B000E000000000000000000F6
:102F50000000000006003E00060006000600060015
:102F60000600060006003FC0000000000000000050
:102F7000000000000F00198031803180030006003E
:102F80000C00180030003F8000000000000000002E
:102F9000000000003F006180018003001F000380EB
:102FA0000180018061803F000000000000000000FF
:102FB00000000000070007000F000B001B001300BB
:102FC00033003F8003000F8000000000000000007D
:102FD000000000001F801800180018001F0011805A
:102FE0000180018021801F0000000000000000001F
:102FF0000000000007801C001800300037003980F6
:103000003180318019800F000000000000000000B6
:10301000000000007F0043000300060006000600D9
:1030200006000C000C000C00000000000000000076
:10303000000000001F003180318031801F0031808E
:103040003180318031801F0000000000000000004E
:10305000000000001E0033003180318033801D806D
:103060000180030007003C00000000000000000099
:10307000000000000000000000000C000C00000038
:10308000000000000C000C00000000000000000028
:10309000000000000000000000000300030000002A
:1030A0000000000006000400080008000000000006
:1030B00000000000000000C00300040018006000D1
:1030C00018000400030000C0000000000000000021
:1030D0000000000000000000000000007FC00000B1
:1030E0007FC00000000000000000000000000000A1
:1030F000000000000000600018000400030000C091
:103100000300040018006000000000000000000040
:103110000000000000001F003180318001800700A6
:103120000C000C0000000C0000000000000000007B
:10313000000000000E0011002100210027002900DE
:1031400029002700200011000E00000000000000F0
:103150000000000000003F000F00090019801980E6
:103160001F8030C030C079E0000000000000000087
:103170000000000000007F003180318031803F007E
:103180003180318031807F000000000000000000AD
:103190000000000000001F4030C060406000600080
:1031A0006000604030801F00000000000000000050
:1031B0000000000000007F00318030C030C030C00F
:1031C00030C030C031807F000000000000000000EF
:1031D0000000000000007F803080308032003E0020
:1031E0003200308030807F8000000000000000004E
:1031F0000000000000007FC03040304032003E0040
:103200003200300030007C000000000000000000B0
:103210000000000000001E803180608060006000BF
:1032200067C0618031801F000000000000000000C6
:103230000000000000007BC03180318031803F8081
:103240003180318031807BC0000000000000000030
:103250000000000000003FC0060006000600060057
:103260000600060006003FC000000000000000004D
:103270000000000000001FC0030003000300030063
:103280006300630063003E000000000000000000D7
:103290000000000000007BC03180330036003C009D
:1032A0003E003300318079C00000000000000000C3
:1032B0000000000000007E00180018001800180030
:1032C0001840184018407FC00000000000000000B7
:1032D000000000000000E0E060C071C07BC06AC078
:1032E0006EC064C060C0FBE0000000000000000091
:1032F00000000000000073C0318039803D803580BF
:1033000037803380318079800000000000000000A9
:103310000000000000001F00318060C060C060C07D
:1033200060C060C031801F0000000000000000008D
:103330000000000000007F0031803180318031804A
:103340003F00300030007E00000000000000000060
:103350000000000000001F00318060C060C060C03D
:1033600060C060C031801F000CC01F8000000000E2
:103370000000000000007F003180318031803E007D
:103380003300318031807CE000000000000000004C
:103390000000000000001F803180318038001F00D5
:1033A0000380318031803F000000000000000000F9
:1033B0000000000000007F804C804C804C800C009E
:1033C0000C000C000C003F0000000000000000009A
:1033D0000000000000007BC03180318031803180EE
:1033E0003180318031801F000000000000000000AB
:1033F0000000000000007BC0318031801B001B00FA
:103400001B000A000E000E0000000000000000007B
:10341000000000000000FBE060C064C06EC06EC031
:103420002A803B803B8031800000000000000000CB
:103430000000000000007BC031801B000E000E0069
:103440000E001B0031807BC0000000000000000067
:1034500000000000000079E030C019800F00060075
:103460000600060006001F800000000000000000AB
:103470000000000000003F802180230006000400BF
:103480000C00188030803F80000000000000000029
:103490000000000007800600060006000600060087
:1034A0000600060006000600060007800000000077
:1034B000000030003000180018000C000C0006005E
:1034C000030003000180018000C000C00000000074
:1034D000000000001E0006000600060006000600B0
:1034E000060006000600060006001E0000000000A0
:1034F000000004000A000A00110020802080000063
:1035000000000000000000000000000000000000BB
:1035100000000000000000000000000000000000AB
:10352000000000000000000000000000000000009B
:10353000FFE008000400020000000000000000009E
:10354000000000000000000000000000000000007B
:10355000000000000000000000001F00018001804A
:103560001F80318033801DC000000000000000007B
:10357000000000007000300030003700398030C09B
:1035800030C030C03980770000000000000000002B
:10359000000000000000000000001E8031806080FC
:1035A0006000608031801F0000000000000000000B
:1035B000000000000380018001801D803380618055
:1035C0006180618033801DC00000000000000000A9
:1035D000000000000000000000001F00318060C0FB
:1035E0007FC0600030C01F800000000000000000AD
:1035F0000000000007E00C000C003F800C000C00F5
:103600000C000C000C003F800000000000000000D7
:10361000000000000000000000001DC03380618039
:103620006180618033801D80018001801F00000067
:103630000000000070003000300037003980318019
:103640003180318031807BC000000000000000002C
:10365000000000000600060000001E000600060034
:103660000600060006003FC0000000000000000049
:10367000000000000600060000003F0003000300F9
:103680000300030003000300030003003E000000EA
:1036900000000000700030003000378036003C0031
:1036A0003C003600330077C000000000000000003E
:1036B000000000001E0006000600060006000600CE
:1036C0000600060006003FC00000000000000000E9
:1036D000000000000000000000007F8036C036C0FF
:1036E00036C036C036C076E00000000000000000A2
:1036F00000000000000000000000770039803180E9
:103700003180318031807BC000000000000000006B
:10371000000000000000000000001F00318060C0B9
:1037200060C060C031801F00000000000000000089
:10373000000000000000000000007700398030C069
:1037400030C030C039803700300030007C000000CD
:10375000000000000000000000001DC033806180F8
:103760006180618033801D800180018007C000007E
:10377000000000000000000000007B801CC018005A
:103780001800180018007F00000000000000000072
:10379000000000000000000000001F8031803C009D
:1037A0001F00038031803F00000000000000000087
:1037B000000000001800180018007F001800180012
:1037C0001800180018800F00000000000000000022
:1037D0000000000000000000000073803180318094
:1037E0003180318033801DC00000000000000000E7
:1037F000000000000000000000007BC0318031802C
:103800001B001B000E000E00000000000000000066
:1038100000000000000000000000F1E060C064C093
:103820006EC03B803B803180000000000000000043
:10383000000000000000000000007BC01B000E0024
:103840000E000E001B007BC0000000000000000006
:103850000000000000000000000079E030C0198086
:1038600019800B000F00060006000C003E0000004F
:10387000000000000000000000003F8021800300E5
:103880000E00180030803F800000000000000000A3
:103890000000000006000C000C000C000C000C00E6
:1038A00018000C000C000C000C00060000000000CA
:1038B00000000000060006000600060006000600E4
:1038C00006000600060006000600060000000000D4
:1038D000000000000C0006000600060006000600BE
:1038E000030006000600060006000C0000000000B1
:1038F000000000000000000000000000180024800C
:1039000003000000000000000000000000000000B4
:103910000000102840587088A0B8102840587088BF
:10392000A0B80000000000004C5555555555A53F66
:103930007751C1166CC156BF9015CB19A001FA3E44
:10394000AD529C804F7E92BEC4B1B4BD9EEE213E6E
:10395000D43888BEE9FAA8BD00004054FB21F93FE5
:103960003163621A61B4D03D0000601A61B4D03D89
:103970007370032E8A19A33B0000002E8A19A33B03
:10398000C14920259A837B39000000000000000017
:103990006E83F9A22915444ED15727FCC0DD34F5BA
:1039A000999562DB4190433CAB6351FE61C5BBDE40
:1039B0003A6E24B7E0D24D42EA2E49061C92D10954
:1039C0001CEB1DFE3EA729B1F53582E88444BB2ED1
:1039D00026709CE9417E5FB439D69139F43953831E
:1039E0008B5F849C3B28F9BDFF97F81F0F9805DE7D
:1039F0008B112FEF1F6D0A5ACF7E366DB709CB277B
:103A0000663F464F2DEA5F9EC7BA27757BF1E5EB0F
:103A1000F739073DEA92528AB15FFB6B085D8D1F53
:103A2000A6F810111111813FD561C119A0012ABF5B
:103A30007DFEB157E31DC73EEB9C2B8AE6E55ABEDF
:103A40007CD5CF5A3AD9E53D683A000800000020FD
:103A50001C000000D4010008843A00081C0000206B
:103A6000041A0000F0010008322D00080B001000BD
:103A70000000000000000000000000000000000046
:043A80000024F4002A
:040000050800019955
:00000001FF
